:020000040800F2
:100000000050002021080008BD070008C5070008AF
:10001000CD070008D5070008DD0700080000000034
:10002000000000000000000000000000E5070008DC
:10003000F107000800000000FD070008090800089B
:1000400069080008690800086908000869080008CC
:1000500069080008690800086908000869080008BC
:1000600069080008690800086908000869080008AC
:10007000690800086908000869080008690800089C
:10008000690800086908000869080008690800088C
:10009000690800086908000869080008690800087C
:1000A000690800086908000869080008690800086C
:1000B0004D0100086908000869080008690800087F
:1000C000690800086908000869080008690800084C
:1000D000690800086908000869080008690800083C
:1000E00069080008690800086908000800000000A5
:1000F0000000000000000000000000000000000000
:0C01000000000000000000005FF808F1A3
:10010C0010B5054C237833B9044B13B10448AFF345
:10011C0000800123237010BD180000200000000097
:10012C00C41E000808B5034B1BB103490348AFF3C9
:10013C00008008BD000000001C000020C41E000848
:10014C0080B400AF4FF080431B6903F00103002B18
:10015C0012D04FF080436FF001021A61084B1B78EC
:10016C00DBB25A1CD1B2064A11701A46054B33F851
:10017C0012204FF080435A6300BFBD4680BC7047CD
:10018C00340200203400002090B5CDB000AF07F150
:10019C00E40328220021184601F062FE07F1D00387
:1001AC0000221A605A609A60DA601A610123C7F85B
:1001BC00E4304FF48033C7F8E8300223C7F800313D
:1001CC004FF48033C7F804314FF4E013C7F808310B
:1001DC0007F1E403184600F0F1FD0346002B01D0B3
:1001EC0000BFFDE70F23C7F8D0300223C7F8D43087
:1001FC000023C7F8D8304FF48063C7F8DC300023F5
:10020C00C7F8E03007F1D0030221184601F058F886
:10021C000346002B01D000BFFDE7BF4B9B69BE4AD4
:10022C0043F001039361BC4B9B6903F0010207F59A
:10023C009873A3F58C731A6007F59873A3F58C73F8
:10024C001B68B54B9B69B44A43F004039361B24BF2
:10025C009B6903F0040207F59873A3F58E731A607B
:10026C0007F59873A3F58E731B68AB4B9B69AA4A71
:10027C0043F008039361A84B9B6903F0080207F550
:10028C009873A3F590731A6007F59873A3F59073A0
:10029C001B68A14B9B69A04A43F0100393619E4BD2
:1002AC009B6903F0100207F59873A3F592731A601B
:1002BC0007F59873A3F592731B68974B9B69964A45
:1002CC0043F020039361944B9B6903F0200207F5E4
:1002DC009873A3F594731A6007F59873A3F5947348
:1002EC001B688E4B5B68C7F81831D7F8183123F0B0
:1002FC00E063C7F81831D7F8183143F00073C7F82A
:10030C001831864AD7F81831536007F1C003002220
:10031C001A605A609A60DA600123C7F8C030022371
:10032C00C7F8C4300223C7F8CC3007F1C003194614
:10033C007B4800F0BFFB784BDB69774A43F0010345
:10034C00D361754BDB6903F0010207F59873A3F5D4
:10035C0096731A6007F59873A3F596731B6807F1EB
:10036C005C0300221A605A609A60DA601A615A6162
:10037C009A614FF08043BB670023FB670023C7F8EB
:10038C00803040F27F43C7F884300023C7F88830B0
:10039C000023C7F8903007F17803184601F0ECF809
:1003AC000346002B01D000BFFDE707F17803184688
:1003BC0001F08CF90346002B01D000BFFDE7602350
:1003CC00FB6580233B6600237B660023FB6607F1FD
:1003DC005C0107F178030022184601F071FA03461C
:1003EC00002B01D000BFFDE707F178030021184670
:1003FC0001F0C4F90346002B01D000BFFDE707F163
:10040C007803184601F010F9002200211C2000F09E
:10041C001BFB1C2000F034FB0023A7F82E3100231B
:10042C00C7F8283107F14C0300221A605A609A6011
:10043C00DA6007F13C0300221A605A609A60DA60B5
:10044C00384A07F1340392E8030083E8030007F508
:10045C009873A3F58273334A92E8030083E8030090
:10046C0007F59873A3F58A732F4A1C4613460FCBD6
:10047C0084E80F00002387F823310023C7F81C31D0
:10048C002A4AD7F81C3152F82330C7F81431284ABD
:10049C00D7F81C3152F82330C7F81031B7F82E3189
:1004AC005B00D7F8142113441B88A7F80E31B7F85A
:1004BC002E310133A7F82E31B7F82E31D7F8102191
:1004CC009A420ED80023A7F82E31D7F81C310133ED
:1004DC000322B3FBF2F101FB02F29B1AC7F81C31A9
:1004EC0070E0B7F90E31002B0BDAB7F80E31A3F52B
:1004FC000043C7F82831D7F828311B01C7F8283139
:10050C0060E0002387F826310023A7F8243100236C
:10051C0087F827312DE000BF001002400000014099
:10052C0000080140DC1E0008E41E0008000000204A
:10053C0060D0000897F8272107F59873A3F58A7304
:10054C0033F81230B7F824219A420DD297F82721AC
:10055C0007F59873A3F58A7333F81230A7F8243192
:10056C0097F8273187F8263197F82731013387F828
:10057C00273197F82731072BDCD997F826315B0008
:10058C0003F598733B44B7F80E2123F8E42C97F845
:10059C0026315B0003F598733B44002223F8F42CBE
:1005AC0097F8263103F598733B44FF2203F8FC2C93
:1005BC0097F8262107F59873A3F58A73002123F881
:1005CC0012106BE7E8E000BF764B1B78DBB297F8B4
:1005DC0023219A42F8D0002387F8273180E097F83E
:1005EC00272107F59873A3F58A7333F812304AF272
:1005FC00683293426FD897F8273103F598733B44D0
:10060C0013F8FC3C1A4697F827315B0003F59873F6
:10061C003B4433F8F43C194697F827315B0003F55B
:10062C0098733B4433F8E43C0B441B139A4226D09A
:10063C0097F8272107F59873A3F58A7333F81230CE
:10064C001A46594B9B5C5BB297F82721D90F0B4488
:10065C005B1059B207F59873A3F58273995497F808
:10066C00273107F59872A2F58A7232F813200132FD
:10067C0091B207F59872A2F58A7222F8131097F8C6
:10068C0027315B0003F598733B4433F8F41C97F85F
:10069C0027315B0003F598733B4433F8E42C97F84F
:1006AC0027310A4492B25B0003F598733B4423F85C
:1006BC00F42C97F827315B0003F598733B4433F81F
:1006CC00F43C1B0B9AB297F82731D2B203F598730E
:1006DC003B4403F8FC2C97F82731013387F827317A
:1006EC0097F82731072B7FF67AAF07F59873A3F5A8
:1006FC00827393F900309AB207F59873A3F582735D
:10070C0093F901309BB213449AB207F59873A3F591
:10071C00827393F902309BB213449AB207F5987323
:10072C00A3F5827393F903309BB213449AB207F585
:10073C009873A3F5827393F904309BB213449AB265
:10074C0007F59873A3F5827393F905309BB21344A4
:10075C009AB207F59873A3F5827393F906309BB29E
:10076C0013449AB207F59873A3F5827393F9073083
:10077C009BB213449AB297F82331591C87F8231172
:10078C00194602F500739AB2084B23F81120D7F8DA
:10079C002831013BC7F82831D7F82831002B7FF4DA
:1007AC0012AF6DE634020020F41E00083400002065
:1007BC0080B400AF00BFFDE780B400AF00BFFDE721
:1007CC0080B400AF00BFFDE780B400AF00BFFDE711
:1007DC0080B400AF00BFFDE780B400AF00BFBD46E2
:1007EC0080BC704780B400AF00BFBD4680BC704772
:1007FC0080B400AF00BFBD4680BC704780B500AF71
:10080C0000F05EF800BF80BD80B400AF00BFBD46F5
:10081C0080BC7047FFF7F8FF0B480C490C4A0023CB
:10082C0002E0D458C4500433C4188C42F9D3094A9A
:10083C00094C002301E013600432A242FBD301F007
:10084C0017FBFFF7A1FC70470000002018000020E8
:10085C0098D00008180000203C020020FEE70000A1
:10086C0080B582B000AF7860124B1A68124B1B78BF
:10087C0019464FF47A73B3FBF1F3B2FBF3F318465A
:10088C0000F00CF90346002B01D001230EE07B682D
:10089C000F2B0AD8002279684FF0FF3000F0D4F803
:1008AC00064A7B681360002300E0012318460837D2
:1008BC00BD4680BD0C00002014000020100000205C
:1008CC0080B400AF054B1B781A46054B1B681344CC
:1008DC00034A136000BFBD4680BC70471400002063
:1008EC003802002080B400AF024B1B681846BD468E
:1008FC0080BC70473802002080B400AF044BDB682A
:10090C001B0A03F007031846BD4680BC704700BFA6
:10091C0000ED00E080B483B000AF0346FB7197F9A3
:10092C000730002B0BDBFB7903F01F02064997F90C
:10093C0007305B09012000FA02F241F8232000BFC6
:10094C000C37BD4680BC704700E100E080B483B03A
:10095C0000AF03463960FB7197F90730002B0ADBB7
:10096C003B68DAB20C4997F907301201D2B20B444A
:10097C0083F800230AE03B68DAB20849FB7903F0FC
:10098C000F03043B1201D2B20B441A7600BF0C3792
:10099C00BD4680BC704700BF00E100E000ED00E008
:1009AC0080B489B000AFF860B9607A60FB6803F07E
:1009BC000703FB61FB69C3F10703042B28BF042366
:1009CC00BB61FB690433062B02D9FB69033B00E0D6
:1009DC0000237B614FF0FF32BB6902FA03F3DA4369
:1009EC00BB681A407B699A404FF0FF317B6901FA72
:1009FC0003F3D9437B680B40134318462437BD4699
:100A0C0080BC704780B582B000AF78607B68013BDA
:100A1C00B3F1807F01D301230FE00A4A7B68013BCD
:100A2C0053600F214FF0FF30FFF790FF054B002272
:100A3C009A60044B07221A60002318460837BD46FB
:100A4C0080BD00BF10E000E080B586B000AF03466B
:100A5C00B9607A60FB7300237B61FFF74DFF78610F
:100A6C007A68B9687869FFF79BFF024697F90F30EF
:100A7C0011461846FFF76AFF00BF1837BD4680BD08
:100A8C0080B582B000AF0346FB7197F9073018466A
:100A9C00FFF740FF00BF0837BD4680BD80B582B070
:100AAC0000AF78607868FFF7ADFF0346184608374B
:100ABC00BD4680BD80B48BB000AF78603960002338
:100ACC007B6200233B6269E101227B6A02FA03F339
:100ADC00FB613B681B68FA691340BB61BA69FB692F
:100AEC009A4240F058813B685B689A4A93425ED0C8
:100AFC00984A934275D8984A934258D0964A934252
:100B0C006FD8964A934252D0944A934269D8944AE9
:100B1C0093424CD0924A934263D8924A934246D025
:100B2C00904A93425DD8122B2AD8122B59D801A285
:100B3C0052F823F0BB0B0008950B0008A70B00081C
:100B4C00E90B0008EF0B0008EF0B0008EF0B000897
:100B5C00EF0B0008EF0B0008EF0B0008EF0B000881
:100B6C00EF0B0008EF0B0008EF0B0008EF0B000871
:100B7C00EF0B0008EF0B00089D0B0008B10B0008F1
:100B8C00794A934213D02CE03B68DB683B6229E046
:100B9C003B68DB6804333B6224E03B68DB6808336A
:100BAC003B621FE03B68DB680C333B621AE03B683E
:100BBC009B68002B02D104233B6213E03B689B68CB
:100BCC00012B05D108233B627B68FA691A6109E0A5
:100BDC0008233B627B68FA695A6103E000233B629D
:100BEC0000E000BFBB69FF2B01D87B6801E07B688C
:100BFC0004337B61BB69FF2B02D87B6A9B0002E04C
:100C0C007B6A083B9B003B617B691A680F213B693F
:100C1C0001FA03F3DB431A40396A3B6901FA03F327
:100C2C001A437B691A603B685B6803F08053002BA6
:100C3C0000F0B1804D4B9B694C4A43F0010393612A
:100C4C004A4B9B6903F00103BB60BB68484A7B6A53
:100C5C009B08023352F82330FB607B6A03F00303DA
:100C6C009B000F2202FA03F3DB43FA681340FB608C
:100C7C007B68404A934213D07B683F4A93420DD025
:100C8C007B683E4A934207D07B683D4A934201D130
:100C9C00032306E0042304E0022302E0012300E026
:100CAC0000237A6A02F0030292009340FA6813431D
:100CBC00FB602F497B6A9B080233FA6841F82320BA
:100CCC003B685B6803F48013002B06D02D4B9A68AD
:100CDC002C49BB6913438B6006E02A4B9A68BB69AD
:100CEC00DB43284913408B603B685B6803F40013BB
:100CFC00002B06D0234BDA682249BB691343CB6027
:100D0C0006E0204BDA68BB69DB431E491340CB601D
:100D1C003B685B6803F40033002B06D0194B5A6810
:100D2C001849BB6913434B6006E0164B5A68BB6904
:100D3C00DB43144913404B603B685B6803F480331E
:100D4C00002B21D00F4B1A680E49BB6913430B6063
:100D5C0021E000BF00003210000031100000221012
:100D6C0000002110000012100000111000100240B1
:100D7C000000014000080140000C0140001001403F
:100D8C0000140140000401400B4B1A68BB69DB43A3
:100D9C00094913400B607B6A01337B623B681A681C
:100DAC007B6A22FA03F3002B7FF48EAE00BF00BFE8
:100DBC002C37BD4680BC70470004014080B586B01E
:100DCC0000AF78607B68002B01D1012372E27B6855
:100DDC001B6803F00103002B00F08780924B5B68CB
:100DEC0003F00C03042B0CD08F4B5B6803F00C034B
:100DFC00082B12D18C4B5B6803F48033B3F5803F26
:100E0C000BD1894B1B6803F40033002B6CD07B682F
:100E1C005B68002B68D101234CE27B685B68B3F5FF
:100E2C00803F06D1804B1B687F4A43F480331360AC
:100E3C002EE07B685B68002B0CD17B4B1B687A4ADD
:100E4C0023F480331360784B1B68774A23F4802398
:100E5C0013601DE07B685B68B3F5A02F0CD1724B5F
:100E6C001B68714A43F4802313606F4B1B686E4AF6
:100E7C0043F4803313600BE06B4B1B686A4A23F41A
:100E8C0080331360684B1B68674A23F4802313601C
:100E9C007B685B68002B13D0FFF724FD386108E0FA
:100EAC00FFF720FD02463B69D31A642B01D90323BB
:100EBC0000E25D4B1B6803F40033002BF0D014E010
:100ECC00FFF710FD386108E0FFF70CFD02463B69A7
:100EDC00D31A642B01D90323ECE1534B1B6803F4A5
:100EEC000033002BF0D100E000BF7B681B6803F0DF
:100EFC000203002B63D04C4B5B6803F00C03002BFC
:100F0C000BD0494B5B6803F00C03082B1CD1464BF0
:100F1C005B6803F48033002B16D1434B1B6803F042
:100F2C000203002B05D07B681B69012B01D0012328
:100F3C00C0E13D4B1B6823F0F8027B685B69DB006A
:100F4C00394913430B603AE07B681B69002B20D0B6
:100F5C00364B01221A60FFF7C5FC386108E0FFF739
:100F6C00C1FC02463B69D31A022B01D90323A1E130
:100F7C002D4B1B6803F00203002BF0D02A4B1B688F
:100F8C0023F0F8027B685B69DB00274913430B6095
:100F9C0015E0264B00221A60FFF7A4FC386108E02C
:100FAC00FFF7A0FC02463B69D31A022B01D903239D
:100FBC0080E11D4B1B6803F00203002BF0D17B6812
:100FCC001B6803F00803002B3AD07B689B69002B4D
:100FDC0019D0174B01221A60FFF784FC386108E026
:100FEC00FFF780FC02463B69D31A022B01D903237D
:100FFC0060E10D4B5B6A03F00203002BF0D0012083
:10100C0000F09CFA1CE00A4B00221A60FFF76AFC05
:10101C0038610FE0FFF766FC02463B69D31A022BDE
:10102C0008D9032346E100BF0010024000004242F1
:10103C0080044242924B5B6A03F00203002BE9D11D
:10104C007B681B6803F00403002B00F0A6800023D0
:10105C00FB758B4BDB6903F08053002B0DD1884B58
:10106C00DB69874A43F08053D361854BDB6903F01E
:10107C008053BB60BB680123FB75824B1B6803F478
:10108C008073002B18D17F4B1B687E4A43F480730E
:10109C001360FFF727FC386108E0FFF723FC0246DA
:1010AC003B69D31A642B01D9032303E1754B1B68ED
:1010BC0003F48073002BF0D07B68DB68012B06D126
:1010CC006F4B1B6A6E4A43F0010313622DE07B6881
:1010DC00DB68002B0CD16A4B1B6A694A23F00103B5
:1010EC001362674B1B6A664A23F0040313621CE00D
:1010FC007B68DB68052B0CD1614B1B6A604A43F0A3
:10110C00040313625E4B1B6A5D4A43F001031362D6
:10111C000BE05B4B1B6A5A4A23F001031362584BDA
:10112C001B6A574A23F0040313627B68DB68002BAD
:10113C0015D0FFF7D7FB38610AE0FFF7D3FB024667
:10114C003B69D31A41F28832934201D90323B1E0AF
:10115C004B4B1B6A03F00203002BEED014E0FFF79D
:10116C00C1FB38610AE0FFF7BDFB02463B69D31AAD
:10117C0041F28832934201D903239BE0404B1B6A16
:10118C0003F00203002BEED1FB7D012B05D13C4B70
:10119C00DB693B4A23F08053D3617B68DB69002B0E
:1011AC0000F08780364B5B6803F00C03082B61D092
:1011BC007B68DB69022B46D1334B00221A60FFF7A8
:1011CC0091FB386108E0FFF78DFB02463B69D31AAF
:1011DC00022B01D903236DE0294B1B6803F000732C
:1011EC00002BF0D17B681B6AB3F5803F08D1244BF0
:1011FC005B6823F400327B689B68214913434B6086
:10120C001F4B5B6823F474127B68196A7B685B6AFA
:10121C000B431B4913434B601B4B01221A60FFF716
:10122C0061FB386108E0FFF75DFB02463B69D31AAE
:10123C00022B01D903233DE0114B1B6803F0007313
:10124C00002BF0D035E0104B00221A60FFF74AFB60
:10125C00386108E0FFF746FB02463B69D31A022BC4
:10126C0001D9032326E0064B1B6803F00073002B07
:10127C00F0D11EE07B68DB69012B07D1012319E05B
:10128C000010024000700040600042420B4B5B6853
:10129C00FB60FB6803F480327B681B6A9A4206D1C0
:1012AC00FB6803F470127B685B6A9A4201D00123DD
:1012BC0000E0002318461837BD4680BD00100240E0
:1012CC0080B584B000AF786039607B68002B01D1A9
:1012DC000123D0E06A4B1B6803F007033A689A427B
:1012EC0010D9674B1B6823F0070265493B68134311
:1012FC000B60634B1B6803F007033A689A4201D0FA
:10130C000123B8E07B681B6803F00203002B20D09C
:10131C007B681B6803F00403002B05D0594B5B68FA
:10132C00584A43F4E06353607B681B6803F008037E
:10133C00002B05D0534B5B68524A43F46053536007
:10134C00504B5B6823F0F0027B689B684D4913435C
:10135C004B607B681B6803F00103002B40D07B685B
:10136C005B68012B07D1474B1B6803F40033002B40
:10137C0015D101237FE07B685B68022B07D1414BC1
:10138C001B6803F00073002B09D1012373E03D4B64
:10139C001B6803F00203002B01D101236BE0394BD6
:1013AC005B6823F003027B685B68364913434B6030
:1013BC00FFF798FAF8600AE0FFF794FA0246FB6828
:1013CC00D31A41F28832934201D9032353E02D4BB7
:1013DC005B6803F00C027B685B689B009A42EBD164
:1013EC00274B1B6803F007033A689A4210D2244B30
:1013FC001B6823F0070222493B6813430B60204B08
:10140C001B6803F007033A689A4201D0012332E0CB
:10141C007B681B6803F00403002B08D0194B5B6836
:10142C0023F4E0627B68DB68164913434B607B68EE
:10143C001B6803F00803002B09D0124B5B6823F4E4
:10144C0060527B681B69DB000E4913434B6000F054
:10145C0021F802460B4B5B681B0903F00F030A498A
:10146C00CB5C22FA03F3094A1360094B1B6818463C
:10147C00FFF7F6F9002318461037BD4680BD00BFB4
:10148C0000200240001002406CD000080C0000202C
:10149C001000002080B487B000AF0023FB60002355
:1014AC00BB6000237B6100237B6000233B611E4BF0
:1014BC005B68FB60FB6803F00C03042B02D0082B69
:1014CC0003D027E0194B3B6127E0FB689B0C03F032
:1014DC000F03174AD35C7B60FB6803F48033002B4B
:1014EC0010D0114B5B685B0C03F00103114AD35C09
:1014FC00BB607B680D4A03FB02F2BB68B2FBF3F3E3
:10150C007B6104E07B680C4A02FB03F37B617B6923
:10151C003B6102E0054B3B6100BF3B6918461C3741
:10152C00BD4680BC704700BF0010024000127A001C
:10153C007CD000088CD0000800093D0080B485B038
:10154C0000AF78600A4B1B680A4AA2FB03235B0AB4
:10155C007A6802FB03F3FB6000BFFB685A1EFA605B
:10156C00002BF9D100BF00BF1437BD4680BC7047BB
:10157C000C000020D34D621080B582B000AF7860B3
:10158C007B68002B01D1012341E07B6893F83D304F
:10159C00DBB2002B06D17B68002283F83C207868F4
:1015AC0000F039F87B68022283F83D207B681A68CA
:1015BC007B6804331946104600F044FA7B6801221C
:1015CC0083F846207B68012283F83E207B68012249
:1015DC0083F83F207B68012283F840207B6801223E
:1015EC0083F841207B68012283F842207B6801222A
:1015FC0083F843207B68012283F844207B68012216
:10160C0083F845207B68012283F83D20002318468F
:10161C000837BD4680BD80B483B000AF786000BF92
:10162C000C37BD4680BC704780B485B000AF786085
:10163C007B6893F83D30DBB2012B01D001233AE0FB
:10164C007B68022283F83D207B681B68DA687B6824
:10165C001B6842F00102DA607B681B68184A9342EF
:10166C000ED07B681B68B3F1804F09D07B681B6878
:10167C00144A934204D07B681B68134A934211D1DD
:10168C007B681B689B6803F00703FB60FB68062BF9
:10169C0010D07B681B681A687B681B6842F00102DB
:1016AC001A6007E07B681B681A687B681B6842F04D
:1016BC0001021A60002318461437BD4680BC7047DF
:1016CC00002C0140000400400008004080B582B0AE
:1016DC0000AF78607B68002B01D1012341E07B686F
:1016EC0093F83D30DBB2002B06D17B68002283F8E7
:1016FC003C20786800F039F87B68022283F83D20A2
:10170C007B681A687B6804331946104600F09AF916
:10171C007B68012283F846207B68012283F83E20F7
:10172C007B68012283F83F207B68012283F84020EC
:10173C007B68012283F841207B68012283F84220D8
:10174C007B68012283F843207B68012283F84420C4
:10175C007B68012283F845207B68012283F83D20B9
:10176C00002318460837BD4680BD80B483B000AF57
:10177C00786000BF0C37BD4680BC704780B584B024
:10178C0000AF786039603B68002B09D17B6893F817
:10179C003E30DBB2012B14BF01230023DBB222E06D
:1017AC003B68042B09D17B6893F83F30DBB2012BEB
:1017BC0014BF01230023DBB215E03B68082B09D1D1
:1017CC007B6893F84030DBB2012B14BF012300235C
:1017DC00DBB208E07B6893F84130DBB2012B14BF1D
:1017EC0001230023DBB2002B01D001235EE03B6818
:1017FC00002B04D17B68022283F83E2013E03B6867
:10180C00042B04D17B68022283F83F200BE03B6859
:10181C00082B04D17B68022283F8402003E07B680C
:10182C00022283F841207B681B6801223968184624
:10183C0000F0F2FA7B681B681E4A934207D17B6862
:10184C001B685A6C7B681B6842F400425A647B68C4
:10185C001B68184A93420ED07B681B68B3F1804F0B
:10186C0009D07B681B68144A934204D07B681B68C0
:10187C00124A934211D17B681B689B6803F00703E3
:10188C00FB60FB68062B10D07B681B681A687B68B2
:10189C001B6842F001021A6007E07B681B681A683B
:1018AC007B681B6842F001021A600023184610374F
:1018BC00BD4680BD002C01400004004000080040E3
:1018CC0080B586B000AFF860B9607A600023FB7514
:1018DC00FB6893F83C30012B01D10223AEE0FB688E
:1018EC00012283F83C207B680C2B00F29F8001A224
:1018FC0052F823F035190008391A0008391A000873
:10190C00391A000875190008391A0008391A000824
:10191C00391A0008B7190008391A0008391A0008D2
:10192C00391A0008F7190008FB681B68B9681846D3
:10193C0000F0EAF8FB681B689A69FB681B6842F0C8
:10194C0008029A61FB681B689A69FB681B6822F0A5
:10195C0004029A61FB681B689969BB681A69FB6889
:10196C001B680A439A6164E0FB681B68B9681846F7
:10197C0000F030F9FB681B689A69FB681B6842F43D
:10198C0000629A61FB681B689A69FB681B6822F409
:10199C0080629A61FB681B689969BB681B691A02B3
:1019AC00FB681B680A439A6143E0FB681B68B968D3
:1019BC00184600F079F9FB681B68DA69FB681B684C
:1019CC0042F00802DA61FB681B68DA69FB681B6885
:1019DC0022F00402DA61FB681B68D969BB681A69DA
:1019EC00FB681B680A43DA6123E0FB681B68B96873
:1019FC00184600F0C3F9FB681B68DA69FB681B68C2
:101A0C0042F40062DA61FB681B68DA69FB681B68E8
:101A1C0022F48062DA61FB681B68D969BB681B69B8
:101A2C001A02FB681B680A43DA6102E00123FB75AA
:101A3C0000BFFB68002283F83C20FB7D184618375A
:101A4C00BD4680BD80B485B000AF786039607B68DE
:101A5C001B68FB607B68294A93420BD07B68B3F10F
:101A6C00804F07D07B68264A934203D07B68254A77
:101A7C00934208D1FB6823F07003FB603B685B6802
:101A8C00FA681343FB607B681C4A93420BD07B685B
:101A9C00B3F1804F07D07B68194A934203D07B681F
:101AAC00184A934208D1FB6823F44073FB603B68EF
:101ABC00DB68FA681343FB60FB6823F080023B6829
:101ACC005B691343FB607B68FA681A603B689A6831
:101ADC007B68DA623B681A687B689A627B68074AA3
:101AEC00934203D13B681A697B681A637B680122B5
:101AFC005A6100BF1437BD4680BC7047002C0140B2
:101B0C00000400400008004080B487B000AF78604B
:101B1C0039607B681B6A7B617B681B6A23F001025E
:101B2C007B681A627B685B683B617B689B69FB60C6
:101B3C00FB6823F07003FB60FB6823F00303FB607E
:101B4C003B681B68FA681343FB607B6923F0020354
:101B5C007B613B689B687A6913437B617B681C4A99
:101B6C0093420CD17B6923F008037B613B68DB68F3
:101B7C007A6913437B617B6923F004037B617B6887
:101B8C00134A934211D13B6923F480733B613B6947
:101B9C0023F400733B613B685B693A6913433B6117
:101BAC003B689B693A6913433B617B683A695A60AD
:101BBC007B68FA689A613B685A687B685A637B68F1
:101BCC007A691A6200BF1C37BD4680BC704700BFE3
:101BDC00002C014080B487B000AF786039607B681E
:101BEC001B6A7B617B681B6A23F010027B681A629C
:101BFC007B685B683B617B689B69FB60FB6823F4DB
:101C0C00E043FB60FB6823F44073FB603B681B689C
:101C1C001B02FA681343FB607B6923F020037B6192
:101C2C003B689B681B017A6913437B617B681D4A87
:101C3C0093420DD17B6923F080037B613B68DB68A9
:101C4C001B017A6913437B617B6923F040037B6141
:101C5C007B68144A934213D13B6923F480633B6144
:101C6C003B6923F400633B613B685B699B003A6909
:101C7C0013433B613B689B699B003A6913433B618F
:101C8C007B683A695A607B68FA689A613B685A6863
:101C9C007B689A637B687A691A6200BF1C37BD4601
:101CAC0080BC7047002C014080B487B000AF7860D6
:101CBC0039607B681B6A7B617B681B6A23F48072CA
:101CCC007B681A627B685B683B617B68DB69FB60E5
:101CDC00FB6823F07003FB60FB6823F00303FB60DD
:101CEC003B681B68FA681343FB607B6923F4007341
:101CFC007B613B689B681B027A6913437B617B6841
:101D0C001D4A93420DD17B6923F400637B613B68D0
:101D1C00DB681B027A6913437B617B6923F4806364
:101D2C007B617B68144A934213D13B6923F4805343
:101D3C003B613B6923F400533B613B685B691B01CE
:101D4C003A6913433B613B689B691B013A69134336
:101D5C003B617B683A695A607B68FA68DA613B6878
:101D6C005A687B68DA637B687A691A6200BF1C3731
:101D7C00BD4680BC704700BF002C014080B487B0CA
:101D8C0000AF786039607B681B6A3B617B681B6ABB
:101D9C0023F480527B681A627B685B687B617B688A
:101DAC00DB69FB60FB6823F4E043FB60FB6823F416
:101DBC004073FB603B681B681B02FA681343FB60B3
:101DCC003B6923F400533B613B689B681B033A69F6
:101DDC0013433B617B680F4A934209D17B6923F41F
:101DEC0080437B613B685B699B017A6913437B6130
:101DFC007B687A695A607B68FA68DA613B685A6872
:101E0C007B681A647B683A691A6200BF1C37BD464E
:101E1C0080BC7047002C014080B487B000AFF860E4
:101E2C00B9607A60BB6803F01F03012202FA03F366
:101E3C007B61FB681A6A7B69DB431A40FB681A6298
:101E4C00FB681A6ABB6803F01F03796801FA03F395
:101E5C001A43FB681A6200BF1C37BD4680BC704732
:101E6C0003460244934200D1704703F8011BF9E783
:101E7C0070B500260C4D0D4C641BA410A64209D164
:101E8C0000F01AF800260A4D0A4C641BA410A64256
:101E9C0005D170BD55F8043B98470136EEE755F86F
:101EAC00043B98470136F2E790D0000890D0000828
:101EBC0090D0000894D00008F8B500BFF8BC08BC5E
:101ECC009E467047F8B500BFF8BC08BC9E467047EC
:101EDC000000000000000000FFFFFFFFFFFFFFFFFE
:101EEC00FFFFFFFFFFFFFFFFFFFFFFFFFF000000F3
:101EFC000000FF0000000000FFFF0000FCF8FC0EDB
:101F0C00272E15E4B9ABBDE00219272E2C1F0BFDB3
:101F1C00FF16354A482BFBC69A82849CC5F51D31A9
:101F2C002F1B05F7FC14385D76765210C79791B1CC
:101F3C00D9F4FBF8F2EAE0D8DBEB05234057615407
:101F4C002EFACDB8BDD1EE0E29311CF2C8B4BBD9D6
:101F5C00FE23465D593600CFB7BAD0EC0B252D19B0
:101F6C00EFC8BCD1FB244152574820EEC7BBC5D6A5
:101F7C00E4EFFA02FDEBD9D7EB09273F525C533063
:101F8C00FED6C7CDD9DFE4EDF7F5E4D0CBDE0124E6
:101F9C003F54625E400FE1CACAD4DCE3EDF7F7E7C9
:101FAC00D1C7D3F012324F66694E1BEAD2D2DAE1B6
:101FBC00E6EDF4F1E0CCC4D4F2112C455B624E2179
:101FCC00F3D9D6DCE0E3EAF2F2E3CFC7D3EE0B258C
:101FDC00405B675A3205E7DDDBD9D8DEE8EADCC7BF
:101FEC00BFCCE908243F5A685C370CF0E7E4DED933
:101FFC00DCE4E5D7C4BDCBE90823405F70653E0D3A
:10200C00E9D9D4D0D1DDF0F9EFD8C9CDE2FC153146
:10201C005167603C0DEBDCD8D4D4DEF0FAF1DACBAE
:10202C00CFE70723405B69582BF7D5CCD0D3D6E04C
:10203C00F0FBF4E1D4DBF410293F55604F23F2D6CA
:10204C00D4DCDED9DAE5EEEADCD4DEF7122536484C
:10205C00554D2C03E8E4E6E1D8D5DDE5E2D7D3DF36
:10206C00F81123334858523207E9E0DED7D0D3E4D5
:10207C00F4F4E4D7DAEF091F3347534A28FDE1DBC8
:10208C00E0E1DFE2EFF9F4E4DCE8041C2A313B4345
:10209C003A18EDD0CDD7DAD9DDEAF8F9EEE7F4103D
:1020AC002A36383B413C22FCDED3D5D3CDCCD6E40A
:1020BC00E9E5E5F51433424445433517F2DBD9E144
:1020CC00E0D5CCCFDBE2E3E7FA18354242414034AD
:1020DC0018F5DCD7DBD9CFC9D0E1EDEFF1FE172E27
:1020EC003838383C3821FEDECFCCCAC6C9D8EDF919
:1020FC00F9F7FF152D3B3F44494326F9D1BFBDBE2F
:10210C00BCBFCEE7F9FEFF071A303D42474E492BC4
:10211C00FCD1BBB9BDBEC2D1E7F9FCFB02172E3D09
:10212C0042464B492EFFD2BAB6B9BBC3D7F205050E
:10213C00FDFD0D25373E444C4A3101D2B7B2B5B93D
:10214C00C2D7F4090A01011129393F444D4D350418
:10215C00D2B4ADAEAEB5C9E9040B0505162E3E439F
:10216C004751554213DFBCAEA9A3A6BADDFC070349
:10217C0004142E41484C54564011DCB9AEAEABAEF3
:10218C00C0E1FD0600FF0F293F48505A5C4410D6B1
:10219C00B1A8ABACB1C3E2FE0600FE0E2A414B5017
:1021AC005859410FD6B1A8ACADB1C2E1FD0600FD46
:1021BC000B273F4A4F595F4C1BDFB5A8A9AAADBDF1
:1021CC00DCFA04FEFA07223A464E5A635222E5BA6A
:1021DC00ABABAAABBAD9F803FDF8041F3642495889
:1021EC0064592BEEC0ADABA9A9B6D4F503FDF80329
:1021FC001D3641485461592EF4C6B3B1ADABB6D3BC
:10220C00F402FDF7021E384347515C532BF1C4B363
:10221C00B2AFACB4D0F20300FA041F394549525C9A
:10222C00562FF5C6B4B3AFAAB0CAEBFDFCF7011C30
:10223C003743464E5A5533FCCEBCBCB8B0B3C9E795
:10224C00F8F5F0FA173442464D585330FBD2C3C55B
:10225C00C3B7B4C5E0F1F1EDF9163341444A555317
:10226C003503D8C8C9C5B9B4C2DCEFF1EEFA1633E0
:10227C003F404552533808DECDCCC8BBB3BFD9ED77
:10228C00EFEEFA1734403F414B4D3508E0D1D2D038
:10229C00C2B8C0D7E9ECEBF8163442403E454731A2
:1022AC0007E1D2D4D3C6BBC1D7EBEFEEFA1634425A
:1022BC003E3B40443109E4D4D5D4C6BABFD4E8EE91
:1022CC00EDF8143443403B3F412F09E4D4D6D6C932
:1022DC00BCC0D4E9EFEFF9143343403B3E40300A25
:1022EC00E5D4D6D6C9BBBDD2E8F1F2FB1331403DE3
:1022FC00383C40320EE8D5D6D6C9BBBDD1E9F3F295
:10230C00FA123041403A3C3E300CE6D3D4D7CDC023
:10231C00BFD0E6F1F2FB1332434038383B2E0DE6CA
:10232C00D2D4D9D0C2BFCFE5F1F3FB13314443393A
:10233C0037382B0AE4D0D2D8D2C4C0CFE5F1F4FDA3
:10234C00153447453B37382C0BE5D0D1D6CFC1BD22
:10235C00CCE2F1F5FE16364A493D37382D0DE5CE67
:10236C00CDD3CEC1BDCCE3F1F5FC13334A4C423D89
:10237C003D3211E8CDCACEC9BCB9C9E3F4F7FC11A2
:10238C0031494C423C3B3212E8CCC8CDC9BDBAC92C
:10239C00E3F6FAFE112F484B413B3B3315EBCDC80E
:1023AC00CDCABEB9C6E0F3F7FB0D2D474E453F3FF6
:1023BC003719EECEC6CBC9BDB7C4DEF3F9FC0C2A77
:1023CC00444B443F413A1FF4D2C8CBC7BAB4C0DB2C
:1023DC00F2F9FC0B2741494441454126FAD5C7C9BE
:1023EC00C6BAB4C0DAF0F7F906223D484442474574
:1023FC002C00D8C7C6C3B7B0BCD8EFF7FB08243F36
:10240C004A464347472F04DBC9C6C2B5ADB9D4ED24
:10241C00F7F906203C48454145463209E0CCC8C393
:10242C00B6ADB8D2EBF5F7021D3A494744484935E9
:10243C000CE2CCC8C4B7ADB5CFE8F3F6011B3848F5
:10244C0046424649370FE5CFCBC6B8ABB1CAE5F328
:10245C00F7021C3949474245483812EAD3CECABB69
:10246C00ACAFC6E1F0F500193849494346483A1576
:10247C00EBD3CECABCADAEC4E0EFF5FF183749497B
:10248C004345483B17EED4CECABDAEAEC2DDEEF42A
:10249C00FF1635474844464A3E1BF0D4CDCABDAF63
:1024AC00AFC2DDEDF3FD143347484243473D1DF306
:1024BC00D7CECCC0B1AEC0DAEBF0FA1130474A45FA
:1024CC0044483E1EF5D9D1CFC5B5B1C0D8E8EDF61C
:1024DC000C2C44494444484022F8DBD1D0C5B6B159
:1024EC00BFD7E7ECF40A2A43494443473F22FADDBD
:1024FC00D5D4C9B8B0BCD4E5EBF30A2B454C474452
:10250C00463D20F8DBD5D6CDBBB2BBD1E2E8F00717
:10251C002A464E4945463F23FBDDD5D5CDBAAFB84B
:10252C00CFE2EAF10728454E4944464126FEDFD565
:10253C00D6CEBCAFB6CDE0E9F10728444D474346B3
:10254C00422900DFD3D4CEBDB1B8CDE0E8EE0122F4
:10255C00424E4B4748442B02DFD3D5D1C1B4B8CB44
:10256C00DDE4E9FC1D3F4E4B4648442D05E1D3D537
:10257C00D2C3B6B9CCDFE5E9F91A3B4B4A46494818
:10258C00320AE5D5D5D2C2B4B6C9DDE5E9F81738BB
:10259C004948434647340FEAD9D7D3C4B5B6C8DC4B
:1025AC00E5E8F714364848434546340FEAD7D7D503
:1025BC00C7B9B9CBDEE6E7F4113347494546463493
:1025CC000EE8D5D4D4C8B9BACCE1EAEBF50F2F4458
:1025DC00474345483814EBD5D3D2C7B8B8CAE0EB5B
:1025EC00EDF60F2E43454244473916EED7D5D5CAE2
:1025FC00BAB8C8DEEAEDF50E2D42443F4145391814
:10260C00F0D8D5D5CBBBB8C8DEEAEBF30A2B4245E4
:10261C004040433919F2DAD6D7CDBDB7C5DBE9EC6A
:10262C00F409293F433D3D413B1EF7DDD7D7CDBDD6
:10263C00B6C3DAE9EDF40A283F423C3B403B20FBB1
:10264C00E1DAD9CEBDB5C2D9EAEEF509263D423B59
:10265C00393F3B23FEE2DAD9CFBCB4C0D8EBF1F75B
:10266C0008243B3F39373D3C2501E4DAD9CFBEB5D0
:10267C00BFD7EBF1F607233A403B393E3C2601E34A
:10268C00D9D9D0BFB5BFD7EAF1F5052039403A37D3
:10269C003C3C2704E6DBDAD2C0B5BDD4E9F1F60543
:1026AC001F373F3A373C3E2B08E8DAD9D2C1B4BBCE
:1026BC00D2E8F0F4031E37403C383D3F2D09E8DAF0
:1026CC00D8D2C1B4BAD1E7F0F4021C36403B373B48
:1026DC003E2F0DECDCDBD4C3B5B8CDE4EFF3001A20
:1026EC0035403B36393C3010EFDFDDD7C6B6B7CBC3
:1026FC00E2EDF2FF1834403C36393C3011F0DFDCAF
:10270C00D8C8B8B8CBE1ECF1FC1531403D37393DB8
:10271C003214F3E1DEDACAB8B6C7DEEBF0FB132FE6
:10272C003F3D36373B3217F6E4E1DDCDBAB6C5DCBA
:10273C00E9EFFA122F3F3D36363B3217F7E4E2DF72
:10274C00D0BCB7C4DAE7EDF70F2D3F3E3635393242
:10275C0019F9E5E3E1D2BEB7C3D8E7ECF60D2A3D93
:10276C003E36353A341CFBE7E3E1D4C0B7C2D7E6BA
:10277C00ECF50B283B3D35343A361FFEE8E4E2D548
:10278C00C1B7C2D6E6EBF308253A3C3432383620D2
:10279C0000EAE4E3D7C4B9C2D6E5EAF10522393D33
:1027AC00363338372202EBE4E4D9C5B9C0D4E4EAB5
:1027BC00F10421383D363337372404EBE4E4DBC72E
:1027CC00BBC1D4E4E9EF011D363C36323637250661
:1027DC00EDE5E6DDCABCC0D3E4EAEFFF1B333B35C5
:1027EC003135362708EFE6E7DFCDBDC0D1E2E9EDA4
:1027FC00FD19323B35313537280AF0E6E7E0CEBE1D
:10280C00C0D1E2E8ECFB16303A353034372A0CF103
:10281C00E7E8E2D0C0C0D0E1E8EBF9132E3935304F
:10282C0033362A0EF2E7E8E4D3C2C1D0E2EAECF97F
:10283C00122C38342E32362B0FF3E7E7E4D4C3C214
:10284C00D1E2EAEDF70F2A37342E30352C11F4E7AC
:10285C00E8E5D6C5C1CFE1EAECF50C2736342E30CD
:10286C00352D14F7E8E8E6D8C6C1CEE0EAECF50B56
:10287C002635342D2E342E15F8E9E8E7D9C7C1CE0C
:10288C00E0EBEDF4092435342D2D332E17FAE9E85D
:10289C00E7DBC8C1CCDFEBEDF4072234342D2D324D
:1028AC002F19FCEAE7E7DCCAC2CCDFEBEEF4072118
:1028BC0033332C2B312F1AFDEAE8E8DDCBC2CCDF09
:1028CC00EBEEF3041E31332C2B31301CFFEBE7E81D
:1028DC00DFCDC3CBDDEBEEF2021C30332C2A3030D3
:1028EC001E02ECE8E9E1CFC4CADCEBEEF2011B2FCF
:1028FC00332C292F301F03EDE8E9E2D0C4CADCEAFF
:10290C00EEF1FF182D322C292E302105EEE8E9E3EB
:10291C00D2C5C9DBEAEFF1FE162C332C282D302260
:10292C0007EFE8EAE4D4C7C9DAE9EFF1FD142B327A
:10293C002C282C2F2309F0E8EAE5D5C7C8D9E9EFF4
:10294C00F0FB1229322D282C30250BF1E8EAE7D7C1
:10295C00C8C7D7E8EFF0F90F27322E282B30270DF8
:10296C00F3E8E9E7D9C9C7D6E7EEEFF80D26322E22
:10297C00282A302910F5E8EAE8DACAC6D4E6EFEFDF
:10298C00F60B24312F282A302A12F7E9E9E9DCCB9F
:10299C00C6D3E5EEEFF50922312F28292F2B15F997
:1029AC00E9E9EADECCC6D1E4EEEFF40720302F28BB
:1029BC00282F2C17FBEAEAEBDFCDC6D0E2EDEEF3C5
:1029CC00041E303029282E2D1AFDEBEAEBE1CFC581
:1029DC00CEE0ECEEF2021C2F3129282E2E1C00EC3E
:1029EC00EAECE3D0C6CDDFECEEF1001A2E3129274C
:1029FC002D2F1E02EDE9ECE4D2C6CCDEECEEF0FE9F
:102A0C00172C312A272D302004EEE9EBE5D4C6CB68
:102A1C00DDEBEEEFFC152B312A272D302307EFE8E9
:102A2C00EBE6D5C7CADCEBEEEEFA1229312B272CDC
:102A3C00312509F0E8EBE7D7C8CADBEBEFEEF80F6E
:102A4C0027302B272C31260BF1E8EBE8D9CAC9D952
:102A5C00EAEFEEF70D26302C272B31280EF3E9EB9D
:102A6C00E9DACAC9D8E8EEEEF60B25302C272A3164
:102A7C002910F5E9EBEADCCBC8D6E7EEEEF5092335
:102A8C00302D272A302A12F6EAEBEBDECCC8D4E63E
:102A9C00EEEDF408212F2D2629302B14F8EAECEC5E
:102AAC00DFCDC7D3E5EEEDF306202F2D26272F2BF8
:102ABC0016FAEBECEDE1CEC7D2E4EEEEF2041E2EEC
:102ACC002E27272E2C18FCECEBEDE2D0C7D0E3ED33
:102ADC00EEF1021C2E2E27272E2D1AFEECEBEDE329
:102AEC00D1C7CFE1EDEEF0001A2D2F27262D2E1C8D
:102AFC0000EDEBEDE4D2C7CEE0EDEEF0FF182C2F9D
:102B0C0028262D2E1E03EEEAEDE5D4C7CDDFEDEF22
:102B1C00F0FD162A2F28262C2F2004EFEAEDE6D5FF
:102B2C00C8CDDEECEEEFFB14292F29262C2F220624
:102B3C00EFE9ECE7D6C9CCDDEBEFEFFA12282F2A40
:102B4C00262B2F2308F1EAEDE8D8CACBDBEAEEEE10
:102B5C00F910272F2A252A2F250AF2EAEDEADACBDB
:102B6C00CBDAEAEEEEF70D252F2A25292F250CF3CB
:102B7C00EAEDEADCCCCAD9E9EFEEF60C242F2B25D2
:102B8C00282E260EF5EAECEBDDCCC9D7E8EFEFF6F4
:102B9C000A232F2B25282E2811F7EBECEBDECDC9C1
:102BAC00D5E6EFEFF509212E2C25272D2913F9EB6E
:102BBC00ECEBDFCEC9D5E6EFEFF4071F2D2C252665
:102BCC002D2914FAEBEBECE1D0C9D4E5EFF0F405C8
:102BDC001D2D2C26262C2916FBECEBECE2D1C9D3AF
:102BEC00E4EFF0F4041C2C2D26262C2A18FDECEB1B
:102BFC00ECE2D1C9D1E3EEF0F3031A2C2D27262CED
:102C0C002B1AFFEDEAECE3D3C9D0E2EEF0F2011897
:102C1C002A2D27252B2C1B01EEEBECE5D4CACFE09B
:102C2C00EDF0F200172A2E28252B2C1D03EFEAECD1
:102C3C00E5D5CACEDFECF0F2FF15292E28262A2C7A
:102C4C001E05F0EAEBE5D6CACEDEECF0F2FD13275A
:102C5C002E29262A2C2007F1EAEBE6D7CBCDDDEB8B
:102C6C00F0F1FC12262D29252A2C2108F2EAEBE79B
:102C7C00D9CCCDDCEAF0F1FB10252D2925292C220D
:102C8C000AF4EBEBE7DACDCDDBEAEFF1FA0E232D0C
:102C9C002A26292D230CF5EBEBE8DBCDCCD9E8EF7C
:102CAC00F1F90D222C2A26292D250EF6EBEBE8DC6A
:102CBC00CECCD8E8EFF0F80B212C2A26292D2610A3
:102CCC00F8ECEBE9DDCFCCD7E6EEF0F709202C2BB6
:102CDC0026282C2611F9EDECEADED0CCD6E5EEF068
:102CEC00F7081E2B2B26272C2613FBEDECEAE0D144
:102CFC00CCD5E4EDF0F6071D2A2B26272B2714FC48
:102D0C00EFEDEBE1D2CCD5E3ECEFF5061B292A264F
:102D1C00262A2715FEF0EDECE2D3CCD4E3ECEFF54C
:102D2C000419282A25262B281700F0EDECE3D4CD26
:102D3C00D4E2ECEFF40218272926262B291801F1EE
:102D4C00EDECE4D5CED4E1EBEFF3011626292525E5
:102D5C002A291A03F2EEEDE5D7CED3E1EBEEF20021
:102D6C00152529252529291B04F3EEEDE6D8CFD30B
:102D7C00E1EBEEF2FE132429252529291B05F4EE9F
:102D8C00EEE7D9D0D3E0EAEEF1FD12232825242971
:102D9C00291D07F5EFEEE8DAD0D3DFEAEDF1FD10EF
:102DAC002228252428291E08F6F0EFE9DBD1D2DEF3
:102DBC00E9EDF0FB0F21272524282A1F09F7F0EF56
:102DCC00EADCD1D3DEE9EDF0FA0D1F262423282A04
:102DDC00200AF7F0F0EADED2D3DEE9EDEFF90C1FB2
:102DEC00272423272A200BF8F0F0EBDED2D2DDE9E2
:102DFC00EDEFF80B1E272422262A210DF9F0F0EC1A
:102E0C00DFD3D2DCE8EDEFF7091D262422262A2396
:102E1C000FFBF1F0ECE0D4D2DCE8EDEEF6081B256C
:102E2C002421252A2310FBF1F1EDE1D4D2DCE8EDCD
:102E3C00EEF6071B25242125292411FCF2F1EEE2E4
:102E4C00D5D2DBE8EDEEF50619242421252A25122E
:102E5C00FDF2F1EEE3D6D2DBE7EDEDF40418242419
:102E6C002124292513FEF3F2EFE4D6D2DAE7EDEDB7
:102E7C00F3031723232023292614FFF3F2F0E6D7BC
:102E8C00D2DAE6EDEEF3021623231F2228261600D3
:102E9C00F4F2F1E7D8D2D9E6EDEEF2011522231FB8
:102EAC002127261701F4F2F1E8D9D2D8E6EDEEF29B
:102EBC00001422231F2027271903F5F2F2E8D9D298
:102ECC00D8E5EDEEF1FF1321231F2027281A05F674
:102EDC00F3F2E9DAD2D7E5EDEEF0FD1120221E1F58
:102EEC0026281B06F6F3F3EBDCD2D7E4EDEEF0FC70
:102EFC00101F231F1F26281C07F6F3F3ECDDD2D678
:102F0C00E3EDEEEFFA0E1F231F1E25291E08F7F224
:102F1C00F3EDDED3D6E3EDEEEEF90D1E231F1E25E9
:102F2C00291F0AF8F3F4EEDFD3D5E2ECEEEEF70B43
:102F3C001D231F1D2429200BF9F3F4EFE1D4D4E158
:102F4C00EDEFEEF6091C231F1C2328210DF9F3F4D9
:102F5C00F0E2D5D4E0ECEFEEF5081B231F1C222881
:102F6C00210EFAF3F4F1E3D5D4DFECEFEEF4071B0A
:102F7C0023201C2127220FFBF3F5F2E5D6D3DEEB41
:102F8C00EFEEF40519231F1B20272311FCF3F5F397
:102F9C00E6D7D3DEEBEFEDF2031822201B1F27241C
:102FAC0012FDF3F5F4E8D8D3DDEBF0EEF2021722C4
:102FBC00201B1E262413FEF3F4F4E9D9D3DCEAF02B
:102FCC00EEF1001622201B1D252515FFF3F4F5EA62
:102FDC00DAD3DBEAF0EFF0FF1422211B1D252516B6
:102FEC0000F3F4F5ECDCD4DBE9F0EFF0FD12212179
:102FFC001B1C23251701F4F4F6EEDED4DAE8F0EF0F
:10300C00F0FC1120211B1B22251803F4F3F6EFDF33
:10301C00D5D9E8F1F0F0FB0F1F211B1B2225190459
:10302C00F5F3F6F0E0D5D9E6F0F0F0FA0E1F221C1D
:10303C001A21251B06F5F3F6F1E1D5D8E5F0F1EFF1
:10304C00F90D1E221C1A20251C07F6F3F6F1E3D607
:10305C00D7E5F0F1EFF70A1D221C1A1F251D09F701
:10306C00F2F6F2E4D7D7E4F0F2EFF6091C221D19C0
:10307C001E241E0AF8F2F5F3E6D8D7E3F0F2F0F6C8
:10308C00071A221D191D241F0CF9F2F5F4E7D9D6E5
:10309C00E2EFF2F0F50619221E191D231F0DFAF2AC
:1030AC00F5F4E8D9D6E1EEF2F0F40418221E191C5E
:1030BC0023200FFBF2F5F5EADBD6E0EDF2F0F4039A
:1030CC0017211F191C222010FCF2F4F5EBDCD6DFC3
:1030DC00EDF3F1F30115211F191B222111FDF2F45F
:1030EC00F5ECDDD6DEECF3F1F30014201F191A21F8
:1030FC002112FEF2F3F5EDDED7DEECF3F2F3FF1264
:10310C00201F1919202114FFF3F3F5EEDFD7DCEAA9
:10311C00F3F3F3FE111F201A191F211501F4F3F517
:10312C00EFE1D7DCEAF3F3F3FD0F1E201A181E2192
:10313C001602F4F3F5F0E2D8DCE9F3F4F3FC0E1D1F
:10314C001F1A181E201704F5F2F5F0E3D9DCE9F389
:10315C00F4F3FB0C1C1F1A181D201705F5F2F5F1E2
:10316C00E4DADBE8F2F4F3FB0B1B1F1A181C201833
:10317C0006F6F3F5F2E6DADBE7F2F4F3FA0A1A1FD5
:10318C001B171C201907F7F3F5F2E7DBDBE6F1F46C
:10319C00F4FA09191F1B171B1F1908F8F3F5F3E8AC
:1031AC00DCDBE5F1F4F4F908181F1B181B1F1A09D6
:1031BC00F9F3F4F3E8DDDBE4F0F5F4F907171E1B83
:1031CC00181A1E1A0BFAF3F4F3E9DEDBE4EFF4F44D
:1031DC00F806161E1C181A1E1A0BFBF3F4F4EADF81
:1031EC00DBE3EFF4F4F805151E1C18191D1A0CFB83
:1031FC00F3F4F4EBDFDBE3EEF4F4F804141D1C1829
:10320C00191D1A0DFCF4F4F4ECE0DCE2EEF3F4F727
:10321C0003131D1C18191D1B0EFDF4F4F5EDE1DC58
:10322C00E2EDF3F4F702121C1C18181D1B0FFEF430
:10323C00F4F5EDE2DCE2EDF4F4F702111C1C1818C5
:10324C001D1C0FFFF4F4F4EEE2DCE2EDF4F4F701F4
:10325C00101B1C18181D1C10FFF4F3F4EEE3DDE139
:10326C00ECF3F4F6000F1B1C19181C1C1100F5F4E0
:10327C00F5EFE4DDE1ECF3F4F6FF0E1A1C18181C64
:10328C001C1201F5F4F5F0E5DEE1ECF3F4F6FE0DBD
:10329C00191B18171B1C1201F6F4F5F1E6DFE1EB14
:1032AC00F3F4F5FE0D191B18171B1C1202F6F4F59E
:1032BC00F1E6DEE1EAF2F4F5FD0C191C18171B1C03
:1032CC001303F6F4F6F2E7DFE1EAF2F4F5FC0B187F
:1032DC001B18161A1C1404F7F4F6F3E8E0E1EAF2F2
:1032EC00F4F5FC0A171B1816191C1404F7F4F6F362
:1032FC00E9E0E1EAF2F5F5FB09171B1715191C15A6
:10330C0005F8F4F6F4EAE0E0E9F2F5F5FB08161B33
:10331C001715191C1606F8F4F6F4EAE1E0E9F2F5D3
:10332C00F4FA08151B1815181C1707F8F3F5F4EB2D
:10333C00E1E0E9F2F5F4FA07151B1815181C17084B
:10334C00F9F3F5F5ECE1E0E8F2F5F5F906141B18E4
:10335C0015181C1809F9F3F5F5ECE2E0E8F2F5F4B0
:10336C00F805141B1814171B180AFAF3F5F5EDE2FF
:10337C00DFE7F2F6F5F804141B1914161B180BFAF8
:10338C00F3F5F6EEE3DFE7F2F6F5F803131B191489
:10339C00161B190CFBF3F4F6EFE3DFE6F1F6F5F789
:1033AC0003121B1914151A1A0DFCF2F4F6F0E4DFD3
:1033BC00E5F1F6F6F702111B1A14151A1A0EFCF2A7
:1033CC00F3F6F0E4DFE5F0F7F6F701101B1A15142D
:1033DC001A1A0FFDF2F2F5F0E5DFE5F0F7F6F7005B
:1033EC00101B1A1514191A0FFDF2F2F6F1E6DFE4B0
:1033FC00F0F7F7F7FF0F1B1B1513181A10FEF2F25C
:10340C00F6F2E7DFE4EFF7F7F6FE0E1A1B151318CA
:10341C001A1100F3F1F5F3E8E0E3EFF7F7F6FD0C22
:10342C00191B1513171A1201F3F1F6F4E9E0E2EE89
:10343C00F7F8F6FC0B191C1612161A1302F4F1F518
:10344C00F4EAE0E2EDF7F8F7FC0B191C1612161A69
:10345C001403F4F0F4F4EBE1E1ECF7F9F7FB0918E1
:10346C001C1712151A1504F4F0F4F4ECE1E1ECF766
:10347C00F9F7FA08171C1712151A1506F5F0F4F5DA
:10348C00EDE2E1EBF6F9F7FA07161C171214191610
:10349C0007F6EFF3F5EDE3E1EAF6FAF7F906161C99
:1034AC00181213191708F7EFF3F5EEE3E0E9F6FA43
:1034BC00F8F905151D191213191709F8EFF2F5EFA4
:1034CC00E4E0E8F5FBF8F903131C19131218180BB8
:1034DC00F9EFF1F5F0E5E0E8F4FBF9F903121C1A49
:1034EC00131217180BF9EFF1F5F0E5E0E7F4FBF91F
:1034FC00F902121C1B141217180DFAEFF0F4F1E676
:10350C00E0E6F3FBFAF901111C1B141216180EFC61
:10351C00F0F0F4F1E6E0E5F2FBFBF9000F1B1C14F4
:10352C001116180FFDF0EFF4F2E7E0E5F1FBFBF9F3
:10353C00FF0E1B1C1511151810FEF0EFF3F2E8E04E
:10354C00E4F1FBFCFAFF0D1A1C1511141811FFF114
:10355C00EEF2F2E9E1E4F0FBFCFAFE0C1A1D161196
:10356C0014181100F1EDF2F2EAE1E3EFFAFDFAFEC4
:10357C000B191D171214171201F2EDF1F3EBE2E324
:10358C00EEF9FCFAFD0A181D181213171203F3EDCD
:10359C00F1F3ECE3E3EDF9FDFBFD09171D18121334
:1035AC00161204F4EDF1F3ECE3E2ECF8FDFBFD088C
:1035BC00171D191212161305F5EEF0F3EDE4E2EBFC
:1035CC00F8FDFCFD07161D191212161306F6EEF087
:1035DC00F2EDE4E1EAF7FDFCFD06151D19131215D9
:1035EC001407F7EEEFF2EEE5E1EAF6FDFCFD06144A
:1035FC001C1A1311151408F8EEEFF2EEE5E1E9F5DB
:10360C00FDFDFD05131C1A1311141409F9EFEFF24B
:10361C00EFE6E2E8F5FDFDFD04121B1B141114147A
:10362C000AFAEFEEF1EFE6E2E8F4FCFDFD04111B03
:10363C001B151214140BFBEFEEF1EFE7E2E7F3FCB2
:10364C00FDFD04101B1B151214140BFBF0EEF1EF17
:10365C00E7E2E7F2FCFDFD03101A1C161214140C21
:10366C00FCF0EEF1EFE8E2E6F2FBFDFD030F1A1CB5
:10367C00161214140CFDF0EDF0F0E9E3E6F1FBFD8D
:10368C00FD020E1A1C171213140DFEF1EDF0F0E9E9
:10369C00E3E5F0FAFEFE020E191C171213140DFFCF
:1036AC00F2EEF0F0EAE3E5EFFAFEFE020D181C175D
:1036BC001313140DFFF2EDF0F0EAE4E5EFF9FEFE62
:1036CC00020C181C181313140E00F3EDEFEFEAE4C0
:1036DC00E5EEF9FEFE020C171B181313140E01F481
:1036EC00EEEFEFEAE4E5EEF8FDFE010B161B181306
:1036FC0013140F02F4EEEFF0EBE4E5EDF8FDFE0130
:10370C000A161B181413140F03F5EEEFF0EBE4E498
:10371C00EDF7FDFE010A151B191413141004F5EE38
:10372C00EFEFEBE4E4ECF7FDFE0109151B191413A4
:10373C00141104F6EEEFF0EBE5E4ECF6FCFE0009F8
:10374C00141B191513141105F7EFEFF0ECE5E4EB6E
:10375C00F6FCFE0008141A191513141106F7EFEFF6
:10376C00F0ECE5E3EAF5FCFE0008131A1A15131544
:10377C001207F8EFEEF0ECE5E3EAF4FCFD000713BA
:10378C001A1A1514151208F9F0EEF0ECE5E3E9F449
:10379C00FBFDFF07121A1A1614151308FAF0EFF0B6
:1037AC00EDE6E2E8F3FBFDFF06121A1A16141513E8
:1037BC0009FBF0EEF0EDE6E2E8F3FBFDFF06111974
:1037CC001A161415140AFBF0EEF0EDE6E2E7F2FB24
:1037DC00FDFE0510191A161415140BFCF1EEEFED85
:1037EC00E6E2E7F1FAFDFE0410191B161415150C90
:1037FC00FDF1EEEFEDE7E2E6F1FAFDFE040F191B29
:10380C00171415150DFEF2EEEFEEE7E2E6F0FAFDF9
:10381C00FE030E181B171415150EFFF2EEEFEEE754
:10382C00E2E5F0F9FDFE030E181B171415160E0039
:10383C00F3EEEFEEE8E2E5EFF9FDFD020D181B17D4
:10384C001415160F01F3EEEFEFE8E2E4EEF8FDFDD0
:10385C00020C171B181415161002F4EEEFEFE9E228
:10386C00E4EDF8FCFD010C171B181414161103F4ED
:10387C00EEEFF0EAE3E3ECF7FCFD010B171B181479
:10388C0014161104F5EEEFF0EAE3E3EBF7FCFD00A0
:10389C000A161B191414161205F6EEEFF0EBE3E200
:1038AC00EBF6FCFD0009151C191414161306F7EFA2
:1038BC00EFF0EBE3E2EAF5FCFDFF09151C1914141B
:1038CC00161307F8EFEFF0ECE4E1E9F5FCFDFF0867
:1038DC00141B1A1413161408F8EFEFF0ECE4E1E8DB
:1038EC00F4FCFDFE07131B1A1513161509F9EFEE60
:1038FC00F0EDE4E1E7F3FBFDFE06131B1A151316BE
:10390C00150AFAEFEEF0EDE5E1E7F3FBFDFE05122B
:10391C001B1B151316150BFBEFEEF0EEE5E1E6F2B3
:10392C00FBFDFE05111B1B161315160CFCF0EEF01F
:10393C00EEE6E0E5F1FAFDFD04111B1C161315165D
:10394C000DFDF0EDF0EEE6E0E4F0FAFDFD03101BEA
:10395C001C171315160EFEF1EDF0EFE7E1E4EFFA8C
:10396C00FDFD030F1A1C171315160FFFF1EDF0EFE9
:10397C00E8E1E3EEF9FDFD020E1A1C171314161004
:10398C0000F2EDF0EFE9E1E3EEF9FDFD010D191D9B
:10399C00181314161102F3EDEFF0E9E1E2EDF8FD66
:1039AC00FD010C181D181314161103F3EDEFF0EABA
:1039BC00E2E2ECF8FDFD000B181D191414161204AC
:1039CC00F4EDEEF0EAE2E1EBF7FDFD000A171D1A4B
:1039DC001413161205F5EDEEF0EBE3E1EAF6FDFD3E
:1039EC000009171D1A1413161306F6EDEEF0EBE38F
:1039FC00E1E9F5FDFDFF09161D1B1513161307F75D
:103A0C00EDEEF0ECE4E1E8F4FCFDFF08151D1B15F0
:103A1C0013161408F8EEEEF0EDE4E0E7F4FCFDFE0E
:103A2C0007141D1C151315150AF9EEEDF0EDE4E065
:103A3C00E6F3FCFDFE06131D1C161315150BFAEE12
:103A4C00EDF0EDE5E0E5F2FCFEFE05121C1C161394
:103A5C0015150CFBEFEDEFEEE6E0E5F1FBFEFE04D9
:103A6C00111C1D171315160DFDEFECEFEEE6E0E43F
:103A7C00F0FBFEFE04101C1D171315160EFEF0ECC9
:103A8C00EFEEE7E0E3EFFAFEFD030F1B1E18131534
:103A9C00160FFFF1ECEFEEE7E0E3EEFAFEFD020F9E
:103AAC001B1E181314161000F1ECEFEFE8E0E2ED1A
:103ABC00F9FEFD020E1A1E191414161101F2ECEE89
:103ACC00EFE8E1E1ECF8FDFD010D1A1E19141416D6
:103ADC001103F3ECEEEFE9E1E1EBF8FDFD010C195C
:103AEC001E1A1414161204F4ECEEEFEAE2E1EAF7F3
:103AFC00FDFD000B181E1A1413161305F5ECEDEF53
:103B0C00EAE2E0E9F6FDFD000A171E1B1513161379
:103B1C0006F6EDEDEFEBE3E0E9F5FDFDFF09161E12
:103B2C001B1513161407F7EDEDF0ECE3E0E8F4FCCD
:103B3C00FDFF08151E1C1513161408F8EDEDF0EC1E
:103B4C00E4E0E7F4FCFDFE07141D1C161316150A21
:103B5C00F9EEEDF0EDE4E0E6F3FCFDFE06131D1CC2
:103B6C00161315150BFAEEEDF0EDE5E0E5F2FBFDA5
:103B7C00FE05131D1D161315150CFBEFEDF0EEE5F0
:103B8C00E0E5F1FBFDFD04121C1D171315160DFDD0
:103B9C00EFEDF0EEE6E0E4F0FAFDFD03101C1D176E
:103BAC001315160EFEF0EDEFEFE7E0E3EFFAFDFD77
:103BBC00030F1B1D181314160EFFF1EDEFEFE7E1C9
:103BCC00E3EEF9FDFD020F1B1E181314160F00F285
:103BDC00EDEFEFE8E1E2EDF9FDFD020E1A1E19130F
:103BEC0014161001F2EDEFEFE8E1E2ECF8FDFD0147
:103BFC000D1A1E191414161102F3EDEFEFE9E1E1A1
:103C0C00ECF8FDFD000C191E191414161203F4ED3A
:103C1C00EFF0EAE2E1EBF7FDFD000B181E1A1414AD
:103C2C00161204F5EDEEF0EAE2E1EAF6FCFDFF0A0D
:103C3C00171E1A1413161305F6EDEEF0EBE3E1E97B
:103C4C00F5FCFDFF09161E1B1413161307F7EEEEF9
:103C5C00F0ECE3E1E9F5FCFDFF08151D1B1513164F
:103C6C001408F8EEEEF0ECE4E1E8F4FCFDFE0715C8
:103C7C001D1B1513161409F9EEEEF0EDE4E1E7F354
:103C8C00FBFDFE06141D1C161315140AFAEFEEF0BC
:103C9C00EDE5E1E7F2FBFCFE06131C1C16131515F3
:103CAC000BFBEFEEF0EEE5E1E6F2FBFDFD05121C81
:103CBC001C161315150CFCF0EDF0EEE6E1E5F1FA2F
:103CCC00FDFD04111C1C171315150CFDF0EDF0EE89
:103CDC00E7E1E5F0FAFCFD03101B1D171315150D9C
:103CEC00FEF1EEF0EFE7E1E4EFF9FCFD030F1B1D35
:103CFC00181314150EFFF2EEF0EFE8E1E4EEF9FC08
:103D0C00FD020E1A1D181314160F00F2EEF0EFE858
:103D1C00E1E3EDF8FCFD020D191D18141416100149
:103D2C00F3EEF0EFE9E1E2EDF7FCFC010D191D19E2
:103D3C001414161102F4EEEFF0E9E2E2ECF7FCFCDD
:103D4C00000C181D191414161104F5EEEFF0EAE22C
:103D5C00E2EBF6FCFC000B171D191414161205F6F9
:103D6C00EEEFF0EAE3E2EAF6FCFCFF0A171D1A1587
:103D7C0014161206F7EEEFF0EBE3E1E9F5FBFCFFAE
:103D8C0009161D1A1514161307F7EFEFF0ECE4E102
:103D9C00E9F4FBFCFF08151C1B1513161308F9EFAF
:103DAC00EFF0ECE4E1E8F3FBFCFE07141C1B15132D
:103DBC00151409FAF0EFF0EDE5E1E7F3FAFCFE0675
:103DCC00131C1B151315140AFBF0EFF0EDE5E1E7DE
:103DDC00F2FAFCFE06121B1B161315140BFCF1EF6A
:103DEC00F1EEE6E1E6F1FAFCFD05111B1B161315CD
:103DFC00150CFDF1EFF1EEE7E1E5F0F9FCFD041037
:103E0C001B1C161315150DFEF2EFF0EFE7E2E5F0B3
:103E1C00F9FCFD030F1A1C171314150DFFF2EFF02C
:103E2C00EFE8E2E5EFF8FCFD020E191C1713141570
:103E3C000E00F3EFF0EFE9E2E4EEF8FBFC020E19F2
:103E4C001C181314150F01F4EFF0F0E9E2E4EDF790
:103E5C00FBFC010D181C181414151002F4EFF0F0F3
:103E6C00EAE3E3EDF7FBFC000C171C181414151017
:103E7C0003F5EFF0F0EAE3E3ECF6FBFC000B171CA8
:103E8C00191414151104F6EFF0F0EBE3E3EBF6FB69
:103E9C00FCFF0A161C191413151105F7EFF0F1EBC2
:103EAC00E4E2EAF5FBFCFF09151C191413151206C4
:103EBC00F8F0F0F1ECE4E2EAF4FBFCFF08141B1A56
:103ECC001413151307F9F0F0F1ECE5E2E9F4FBFC3F
:103EDC00FE07141B1A1513151308F9F0F0F1EDE594
:103EEC00E2E8F3FAFCFE06131B1A1513151309FA74
:103EFC00F1F0F1EDE6E2E8F3FAFCFE06121B1A15FE
:103F0C001314130AFBF1EFF1EEE6E2E7F2FAFCFD13
:103F1C0005111A1A151314140BFCF1EFF1EEE7E26C
:103F2C00E7F1FAFCFD04101A1B161314140CFDF225
:103F3C00EFF1EFE8E3E6F1F9FCFD030F191B1613A3
:103F4C0014140CFEF2EFF1EFE8E3E6F0F9FCFD03DC
:103F5C000F191B161313140DFFF3EFF1F0E9E3E542
:103F6C00EFF8FCFD020E191B171313140E00F4EFDF
:103F7C00F1F0E9E3E5EEF8FCFD020D181B17131345
:103F8C00140E01F4EFF1F0EAE3E5EEF8FCFC010CA1
:103F9C00171B171313140F02F5F0F1F1EBE4E4ED1A
:103FAC00F7FBFC000B171B171313141003F6F0F19F
:103FBC00F1EBE4E4ECF7FBFC000A161B18131314EA
:103FCC001004F6F0F1F1ECE4E3ECF6FBFCFF09165F
:103FDC001B181312141105F7F0F1F1ECE5E3EBF6F5
:103FEC00FBFCFF09151B181312141106F8F0F1F263
:103FFC00EDE5E3EAF5FBFCFF08141B191312141290
:10400C0007F9F0F0F2EDE6E3EAF4FBFCFE07131B14
:10401C00191412141208F9F1F0F2EEE6E3E9F4FBCC
:10402C00FCFE06131A191412141208FAF1F0F2EE2F
:10403C00E6E3E8F3FBFCFE06121A1914121413093A
:10404C00FBF1F0F2EFE7E3E8F3FAFCFD05111A1AC5
:10405C00141213130AFCF2F0F2EFE8E3E8F2FAFCA4
:10406C00FD0410191A141113130BFDF2F0F2F0E801
:10407C00E3E7F2FAFCFD030F191A151113130CFEEA
:10408C00F3F0F2F0E9E3E7F1FAFCFD030E181A1570
:10409C001113130CFFF3F0F2F0E9E4E6F0F9FCFC79
:1040AC00020E181A151213140D00F4F0F2F1EAE4D2
:1040BC00E6F0F9FCFC010D171A161213140E00F49D
:1040CC00F0F2F1EBE4E6EFF8FCFC010C171A161217
:1040DC0012140E01F5F0F2F1EBE5E5EEF8FCFC0044
:1040EC000B161A161212140F02F6F0F2F2ECE5E5AA
:1040FC00EEF7FCFC000A161A161212141003F6F155
:10410C00F2F2ECE5E5EDF7FBFCFF09151A161212BD
:10411C00141004F7F1F2F2EDE6E5ECF7FBFCFF0806
:10412C00141A171211141105F8F1F2F3EDE6E5EC7F
:10413C00F6FBFCFE081319171211141106F8F1F214
:10414C00F3EEE7E5EBF6FBFCFE0713191712111360
:10415C001107F9F2F2F3EFE7E5EBF5FBFBFE0612C4
:10416C0019171211131208FAF2F2F3EFE7E4EAF559
:10417C00FBFBFD051119171211131208FBF2F2F3D8
:10418C00EFE8E4EAF4FBFBFD05111817121113120A
:10419C0009FBF2F2F3F0E8E5EAF4FAFBFD0410187F
:1041AC0018131113120AFCF3F2F3F1E9E5E9F3FA2F
:1041BC00FBFC030F1818131012120AFDF3F2F4F1A2
:1041CC00EAE5E9F2FAFCFC030E1718131012120BB5
:1041DC00FEF4F2F3F1EAE5E9F2FAFCFC020D171831
:1041EC00131012120BFFF4F2F4F2EBE6E8F1F9FC07
:1041FC00FC020D1618131012120CFFF5F2F4F2EB70
:10420C00E6E8F1F9FCFC010C1618131011120D0064
:10421C00F5F2F4F2ECE6E8F0F9FCFC010B151814DD
:10422C001011120D01F6F2F4F3ECE6E7F0F8FCFCD9
:10423C00000A1518141011120E02F6F2F3F3EDE742
:10424C00E7EFF8FCFC000A1418141011120E03F717
:10425C00F2F3F3EDE7E7EFF8FCFCFF091318141089
:10426C0011120F04F8F2F3F3EEE7E7EEF7FBFCFFA5
:10427C00081317151010120F04F8F2F3F4EEE8E718
:10428C00EEF7FBFCFF071217151110121005F9F3CE
:10429C00F3F4EFE8E7EDF6FBFCFE07111715111030
:1042AC00121006FAF3F3F4EFE8E7EDF6FBFCFE066A
:1042BC001117151110121007FAF3F3F4F0E9E6ECEC
:1042CC00F5FBFBFD051017151110121107FBF3F38D
:1042DC00F4F0E9E6ECF5FBFBFD05101716111012D6
:1042EC001108FCF4F3F4F1EAE6EBF4FAFCFD040F2C
:1042FC0016161110121109FCF4F3F4F1EAE7EBF4C1
:10430C00FAFCFD030E1616110F111109FDF4F3F44E
:10431C00F2EBE7EAF3FAFCFD030D1516120F11117F
:10432C000AFEF5F3F4F2ECE7EAF3FAFCFD020D15E4
:10433C0016120F11110BFFF5F3F4F2ECE7EAF2FA97
:10434C00FCFC020C1416120F11110BFFF6F3F4F314
:10435C00EDE8EAF2F9FCFC010B1416120F10110C2B
:10436C0000F6F3F4F3EDE8E9F1F9FCFC010A13169D
:10437C00120F10110C01F6F3F4F3EEE8E9F1F9FC6D
:10438C00FC000A1316120F10110D02F7F3F4F4EEE1
:10439C00E8E9F0F8FCFC00091216130F10110D02DD
:1043AC00F8F3F4F4EFE9E9F0F8FCFCFF081216134B
:1043BC000F10110E03F8F3F4F4EFE9E9EFF8FCFC3D
:1043CC00FF081115130F0F110E04F9F4F4F4F0EAB1
:1043DC00E9EFF7FBFCFF071115130F0F110E05F991
:1043EC00F4F4F5F0EAE9EEF7FBFCFE061015130FFA
:1043FC000F110F05FAF4F4F5F1EAE8EEF6FBFCFE0A
:10440C00060F1513100F110F06FBF4F4F5F1EBE882
:10441C00EDF6FBFCFE050F1514100F110F07FBF446
:10442C00F4F5F2EBE8EDF6FBFCFE040E1414100EA2
:10443C00100F07FCF5F4F5F2ECE8EDF5FBFCFD04D0
:10444C000E1414100E101008FDF5F4F5F2ECE9EC56
:10445C00F4FBFCFD030D1414100E101009FEF5F402
:10446C00F5F3EDE9ECF4FBFCFD030C1314100E104A
:10447C001009FEF6F4F5F3EDE9ECF4FAFCFD020B91
:10448C001314100E0F100AFFF6F4F5F4EEE9ECF32A
:10449C00FAFCFD020B1314100E0F100A00F6F4F5C3
:1044AC00F4EEEAEBF3FAFCFD010A1214100E0F10F5
:1044BC000B00F7F4F5F4EFEAEBF2FAFCFD0109124C
:1044CC0014110E0E100B01F7F4F5F4EFEAEBF2F900
:1044DC00FCFD00091114110E0E100C02F8F4F5F588
:1044EC00F0EAEBF2F9FCFD00081114110E0E0F0CA2
:1044FC0002F8F4F5F5F0EBEBF1F9FCFD0007101404
:10450C00110E0E0F0C03F9F4F5F5F1EBEBF1F8FCD1
:10451C00FDFF070F13110E0E0F0D04F9F4F5F5F155
:10452C00ECEBF0F8FCFDFF060F13110E0E0F0D0453
:10453C00FAF4F5F5F2ECEAF0F8FCFDFF050E1312B7
:10454C000E0D0F0D05FBF5F5F6F2ECEAEFF7FCFDA1
:10455C00FE050E13120E0D0F0E06FBF5F5F6F3ED20
:10456C00EAEFF7FCFDFE040D13120E0D0F0E06FC08
:10457C00F5F5F6F3EDEBEFF6FCFDFE040D12120E65
:10458C000D0F0E07FDF5F5F6F3EEEBEEF6FCFDFE6A
:10459C00030C12120F0D0E0E08FDF6F5F6F4EEEBF1
:1045AC00EEF5FBFDFE030B12120F0D0E0E08FEF6C0
:1045BC00F4F6F4EEEBEEF5FBFDFE020B11120F0D13
:1045CC000E0E09FEF6F4F6F4EFEBEDF5FBFDFD0235
:1045DC000A11120F0D0E0E09FFF7F5F6F5EFEBEDC4
:1045EC00F4FBFDFD010911120F0D0E0E0900F7F57C
:1045FC00F6F5F0ECEDF4FBFDFD010910120F0D0DBD
:10460C000E0A00F8F5F6F5F1ECEDF4FAFDFD0108F3
:10461C0010120F0D0D0E0A01F8F5F6F5F1ECEDF395
:10462C00FAFDFD00080F120F0D0D0E0A02F9F5F63A
:10463C00F6F1EDEDF3FAFDFD00070F12100D0D0E66
:10464C000B02F9F5F6F6F2EDEDF2F9FDFD00060EB2
:10465C0012100D0D0E0B03FAF5F6F6F2EDEDF2F964
:10466C00FDFDFF060E11100D0C0E0B04FAF5F6F6FF
:10467C00F3EEEDF2F9FDFDFF050D11100D0C0E0C16
:10468C0004FBF6F5F6F3EEEDF1F8FDFDFF050C116C
:10469C00100D0C0D0C05FBF6F5F6F4EFEDF1F8FC36
:1046AC00FDFF040C11100D0C0D0C05FCF6F5F6F4C9
:1046BC00EFEDF0F7FCFDFF040B11100D0C0D0C06CB
:1046CC00FDF6F5F6F4EFEDF0F7FCFDFE030B101024
:1046DC000D0C0D0C06FDF7F5F6F5F0EDF0F7FCFD05
:1046EC00FE030A10100D0C0D0C07FEF7F5F6F5F095
:1046FC00EDF0F6FCFDFE020A10100E0C0D0C07FE80
:10470C00F7F5F6F5F1EDEFF6FBFDFE02090F110ED4
:10471C000C0C0D08FFF8F5F6F5F1EDEFF5FBFDFED1
:10472C0001080F100E0C0C0D0800F8F5F6F6F2EE61
:10473C00EFF5FBFDFE01080E100E0C0C0C0900F839
:10474C00F5F6F6F2EEEFF5FBFDFE01070E100E0B83
:10475C000C0C0901F9F5F6F6F3EEEFF4FBFDFE0097
:10476C00060D100E0B0B0C0902F9F6F6F6F3EFEF33
:10477C00F4FAFDFE00060D100E0C0B0C0A02FAF6F4
:10478C00F6F7F3EFEFF3FAFDFE00050C100E0C0B31
:10479C000C0A03FAF6F6F7F4EFEFF3FAFDFEFF0559
:1047AC000C100F0C0B0C0A03FBF6F6F7F4F0EFF3FE
:1047BC00F9FDFEFF040B100F0C0B0C0B04FBF6F6B3
:1047CC00F7F5F0EEF2F9FDFEFF030B100F0C0B0CDE
:1047DC000B05FCF6F6F7F5F1EEF2F9FDFEFE030A19
:1047EC000F0F0C0B0C0B05FDF7F6F7F5F1EEF2F8CD
:1047FC00FDFEFE020A0F0F0C0A0B0B06FDF7F6F777
:10480C00F6F1EFF1F8FDFEFE02090F0F0C0A0B0B8F
:10481C0006FEF7F6F7F6F2EFF1F7FCFEFE01090FD4
:10482C000F0C0A0B0C07FEF8F6F7F6F2EFF1F7FC9B
:10483C00FEFE01080E0F0C0A0B0C08FFF8F6F7F73A
:10484C00F2EFF0F6FCFEFE00070E0F0C0A0B0C0844
:10485C0000F8F6F7F7F3EFF0F6FCFEFD00070E108C
:10486C000D0A0B0C0900F9F6F7F7F3EFF0F6FCFE66
:10487C00FD00060D100D0A0B0C0901F9F6F7F8F402
:10488C00EFEFF5FBFEFDFF060D100D0A0A0C0902F9
:10489C00F9F6F7F8F4F0EFF5FBFEFDFF050C0F0D44
:1048AC000A0A0C0A02FAF6F7F8F5F0EFF4FBFEFD33
:1048BC00FF040C0F0D0A0A0C0A03FAF6F7F8F5F0D0
:1048CC00EFF4FBFEFDFE040B0F0D0A0A0C0A03FBB2
:1048DC00F7F7F9F6F0EFF4FAFEFDFE030B0F0D0AF5
:1048EC000A0C0B04FBF7F7F9F6F1EFF3FAFEFDFEF9
:1048FC00030B0F0D0A090B0B04FCF7F8F9F6F1EF9B
:10490C00F3FAFDFDFD020A0F0D0A090B0B05FCF76E
:10491C00F7F9F7F1EFF3F9FDFDFD020A0E0E0A09A6
:10492C000B0B06FDF7F7F9F7F2EFF2F9FDFDFD01C0
:10493C00090E0E0A090B0C06FDF8F7F9F7F2EFF267
:10494C00F9FDFDFD01080E0E0A090B0C07FEF8F728
:10495C00F9F8F3EFF2F8FDFDFC00080E0E0A090B56
:10496C000C07FEF8F7F9F8F3EFF2F8FDFDFC000781
:10497C000E0E0A090B0C08FFF8F8F9F8F3EFF1F832
:10498C00FCFDFCFF070D0E0B090B0C08FFF9F8F9E9
:10499C00F9F4EFF1F7FCFDFCFF060D0E0B090B0C07
:1049AC000800F9F7F9F9F4F0F1F7FCFDFCFF060D3E
:1049BC000E0B090A0C0901F9F7F9F9F4F0F1F6FC00
:1049CC00FDFCFE050C0E0B090A0C0901FAF8F9F9AD
:1049DC00F5F0F0F6FCFDFCFE050C0E0B090A0C0ABA
:1049EC0002FAF8F9F9F5F0F0F6FBFDFCFE040B0EFB
:1049FC000B090A0C0A02FBF8F9FAF6F1F0F5FBFDCB
:104A0C00FCFD040B0E0B090A0C0A03FBF8F9FAF671
:104A1C00F1F0F5FBFDFCFD030A0D0B090A0C0A0372
:104A2C00FBF8F9FAF6F1F0F5FAFDFCFD030A0D0BB3
:104A3C0009090C0B04FCF8F9FAF7F2F0F5FAFDFC95
:104A4C00FD02090D0C09090C0B05FCF8F9FAF7F23B
:104A5C00F0F4FAFCFCFC02090D0C09090B0B05FD2A
:104A6C00F9F9FAF7F2F0F4F9FCFCFC01080D0C0969
:104A7C00090B0B06FEF9F9FAF8F3F0F3F9FCFCFC60
:104A8C0001080D0C09090B0B06FEF9F9FAF8F3F005
:104A9C00F3F9FCFCFC00070C0C0A090B0B07FFF9E3
:104AAC00F9FAF8F4F1F3F8FCFCFC00070C0C0A0919
:104ABC000B0C07FFFAF9FAF9F4F1F3F8FCFCFCFF24
:104ACC00060C0C0A090B0C0800FAF9FAF9F4F1F2CD
:104ADC00F7FBFCFCFF060C0C0A090B0C0800FAF99E
:104AEC00FAF9F5F1F2F7FBFCFBFE050B0C0A090BCE
:104AFC000C0901FBF9FAF9F5F1F2F7FBFCFBFE05E9
:104B0C000B0C0A090A0C0902FBF9FAFAF5F1F2F698
:104B1C00FBFCFBFE040A0C0B090A0C0902FBF9FA5C
:104B2C00FAF6F1F1F6FAFCFBFD040A0C0B090A0C7F
:104B3C000A03FCF9FAFAF6F2F1F5FAFCFBFD030AAA
:104B4C000C0B090A0C0A03FCF9FAFAF6F2F1F5FA65
:104B5C00FCFBFD02090C0B090A0C0A04FDFAFAFA1B
:104B6C00F7F2F1F5FAFCFBFD02090C0B090A0C0A31
:104B7C0004FDFAFAFAF7F3F1F4F9FCFBFC01080C6A
:104B8C000B09090B0B05FEFAFAFBF8F3F1F4F9FB30
:104B9C00FBFC01080C0B09090B0B06FEFAFAFBF8DF
:104BAC00F3F1F4F9FBFBFC00070B0B09090B0B06EB
:104BBC00FFFAFAFBF8F4F1F3F8FBFBFC00070B0B24
:104BCC0009090B0B07FFFBFAFBF9F4F1F3F8FBFBFC
:104BDC00FCFF060B0B0A090B0B0700FBFAFBF9F4A5
:104BEC00F1F3F7FBFBFBFF060B0C0A090B0C08009F
:104BFC00FBFAFBF9F5F1F3F7FBFBFBFF050B0C0ADA
:104C0C00090B0C0801FBFAFBFAF5F1F2F7FBFBFBC5
:104C1C00FE040A0C0A090B0C0802FCFAFBFAF5F26A
:104C2C00F2F6FAFBFBFE040A0C0A090A0C0902FC58
:104C3C00FAFBFAF6F2F2F6FAFBFBFD030A0C0A0990
:104C4C000A0C0903FCFAFBFAF6F2F1F5FAFBFBFD90
:104C5C0003090C0A090A0C0A03FDFAFBFAF6F2F135
:104C6C00F5FAFBFBFD02090C0B090A0C0A04FDFA10
:104C7C00FBFBF7F2F1F5F9FBFBFC02090C0B090A43
:104C8C000C0A04FEFAFBFBF7F2F1F4F9FBFBFC0156
:104C9C00080C0B090A0C0B05FEFAFBFBF8F3F1F4FC
:104CAC00F9FBFBFC01080C0B09090C0B06FEFAFBCB
:104CBC00FBF8F3F1F4F9FBFBFC00070B0B09090BF8
:104CCC000B06FFFAFBFBF8F3F1F3F8FBFBFB000719
:104CDC000B0B09090B0B07FFFBFBFBF9F4F1F3F8CA
:104CEC00FBFBFBFF060B0B09090B0C0700FBFAFB8C
:104CFC00F9F4F1F3F8FBFBFBFF060B0B09090B0CAA
:104D0C000700FBFAFBF9F4F1F3F7FBFBFBFF050BD8
:104D1C000B09090B0C0801FBFAFBFAF5F1F2F7FB96
:104D2C00FBFBFE050B0C09090B0C0801FBFAFBFA4B
:104D3C00F5F1F2F7FBFBFBFE040A0C0A090B0C095C
:104D4C0002FCFAFBFAF5F1F2F6FAFBFBFD040A0C95
:104D5C000A090B0C0902FCFAFBFAF6F1F1F6FAFB64
:104D6C00FAFD040A0C0A090A0C0A03FCFAFBFBF60E
:104D7C00F1F1F6FAFBFAFD030A0C0A090A0C0A0314
:104D8C00FDFAFBFBF6F1F1F5FAFBFAFC03090C0A50
:104D9C00090A0C0A04FDFAFBFBF7F1F1F5FAFBFA30
:104DAC00FC02090C0A090A0C0B04FDFBFBFBF7F2D5
:104DBC00F1F5F9FBFAFC02090C0A090A0C0B05FEC9
:104DCC00FBFBFBF7F2F0F4F9FBFAFC01080C0A0907
:104DDC000A0C0B05FEFBFBFBF7F2F0F4F9FBFAFBFC
:104DEC0001080C0B090A0C0C06FEFBFBFBF8F2F09D
:104DFC00F4F9FBFAFB00080C0B090A0C0C06FFFB80
:104E0C00FBFCF8F2F0F3F8FBFAFB00070B0B0909BB
:104E1C000C0C07FFFBFBFCF8F3F0F3F8FBFAFBFFC1
:104E2C00070B0B09090C0C0700FBFBFCF9F3F0F367
:104E3C00F8FBFAFBFF060B0B09090C0C0800FBFB3B
:104E4C00FCF9F3F0F3F8FAFAFAFF060B0B09090C6C
:104E5C000C0801FCFBFCF9F4F0F2F7FAFAFAFE0587
:104E6C000B0B09090C0D0801FCFBFCF9F4F0F2F733
:104E7C00FAFAFAFE050A0B09090C0D0902FCFBFCF7
:104E8C00FAF4F1F2F7FAFAFAFE050A0B09090B0D1E
:104E9C000902FCFBFCFAF5F1F2F6FAFAFAFD040A47
:104EAC000B09090B0D0A03FDFBFCFAF5F1F1F6FAFF
:104EBC00FAFAFD040A0B0A090B0D0A03FDFBFCFAB6
:104ECC00F5F1F1F6F9FAFAFD03090B0A090B0D0AD3
:104EDC0004FDFBFCFAF6F1F1F5F9FAFAFC03090B07
:104EEC000A090B0D0B04FEFBFCFBF6F1F1F5F9FACC
:104EFC00FAFC02090B0A090B0D0B04FEFBFCFBF67A
:104F0C00F2F1F5F9FAFAFC02080B0A090B0D0B0584
:104F1C00FEFBFCFBF7F2F1F4F8FAFAFC01080B0AC1
:104F2C00090B0D0B05FFFCFCFBF7F2F1F4F8FAFA98
:104F3C00FB01080B0A090A0D0C06FFFCFCFBF7F23F
:104F4C00F1F4F8FAFAFB00070B0B090A0D0C06003A
:104F5C00FCFCFBF7F2F1F3F8FAFAFB00070B0B0978
:104F6C000A0C0C0700FCFBFBF8F3F1F3F7FAFAFB65
:104F7C0000060B0B090A0C0C0701FCFBFBF8F3F108
:104F8C00F3F7FAFAFBFF060A0B0A0A0C0C0801FCF1
:104F9C00FBFBF8F4F1F3F7FAFAFBFF050A0B0A0A2C
:104FAC000C0C0801FDFBFBF9F4F1F2F7FAFAFBFE2D
:104FBC00050A0B0A0A0C0C0902FDFBFBF9F4F1F2D1
:104FCC00F6F9FAFAFE040A0B0A0A0C0C0902FDFBAC
:104FDC00FBF9F5F1F2F6F9FAFAFE04090B0A0A0BE1
:104FEC000C0903FDFBFBF9F5F1F2F6F9FAFAFD04F5
:104FFC00090B0A0A0B0C0A03FEFBFBFAF5F1F2F59E
:10500C00F9FAFAFD03090B0A0A0B0C0A04FEFBFB66
:10501C00FAF6F2F1F5F9FAFAFD03090B0A0A0B0C90
:10502C000A04FEFBFBFAF6F2F1F5F9FAFAFD0208B6
:10503C000B0A0A0B0C0A05FEFBFBFAF6F2F1F4F86C
:10504C00FAFAFC02080B0B0A0B0C0B05FFFBFBFA24
:10505C00F6F2F1F4F8FAFAFC01080B0B0A0B0C0B44
:10506C0006FFFBFBFAF7F2F1F4F8FAFAFC01070B76
:10507C000B0A0A0C0B0600FCFBFAF7F3F1F3F8FA37
:10508C00FAFC00070B0B0A0A0C0B0700FCFBFAF7E7
:10509C00F3F1F3F7FAFAFC00060B0B0A0A0C0C07F7
:1050AC0000FCFBFAF8F3F1F3F7FAFAFB00060B0B32
:1050BC000A0A0C0C0701FCFBFAF8F4F1F3F7FAFA04
:1050CC00FBFF060A0B0A0A0C0C0801FCFBFBF8F4AC
:1050DC00F1F2F7FAFAFBFF050A0B0A0A0B0C0802AD
:1050EC00FCFBFBF9F4F1F2F6FAFBFBFF050A0B0AE9
:1050FC000A0B0C0902FCFBFBF9F5F1F2F6FAFBFBCF
:10510C00FE040A0B0A0A0B0C0902FDFBFBF9F5F174
:10511C00F2F6F9FBFBFE040A0C0A0A0B0C0903FD60
:10512C00FBFBF9F5F2F2F5F9FBFBFE03090C0A0A9D
:10513C000B0C0A03FDFBFBF9F6F2F1F5F9FBFBFD99
:10514C0003090C0B0A0B0C0A04FEFBFBFAF6F2F13A
:10515C00F5F9FBFBFD02090B0B0A0A0C0A04FEFB1A
:10516C00FBFAF6F2F1F5F9FBFBFD02080B0B0A0A50
:10517C000C0A05FEFBFBFAF7F2F1F4F9FBFBFC025F
:10518C00080B0B0A0A0C0B05FEFBFBFAF7F2F1F409
:10519C00F8FBFBFC01080B0B0A0A0C0B06FFFBFAD5
:1051AC00FAF7F3F1F4F8FBFBFC01070B0B0A0A0C02
:1051BC000B06FFFBFAFAF7F3F1F3F8FBFBFC000725
:1051CC000B0B0A0A0C0B0600FBFAFAF8F3F1F3F8D6
:1051DC00FBFBFC00070B0B0A0A0B0B0700FBFAFA94
:1051EC00F8F3F1F3F7FAFBFC00060B0B0A0A0B0CB5
:1051FC000700FBFAFAF8F4F1F3F7FAFBFBFF060BE6
:10520C000C0A0A0B0C0801FCFAFBF8F4F1F2F7FAA1
:10521C00FBFBFF050B0C0A090B0C0801FCFAFBF954
:10522C00F4F1F2F7FAFBFBFF050A0C0A090B0C0868
:10523C0002FCFAFBF9F5F1F2F6FAFBFBFE050A0C9F
:10524C000A090B0C0902FCFAFBF9F5F1F2F6FAFB70
:10525C00FBFE040A0C0A090B0C0902FCFAFBF9F51B
:10526C00F1F2F6FAFBFBFE040A0C0A090B0C09031B
:10527C00FDFAFBFAF5F1F2F6FAFBFBFD03090C0A59
:10528C00090A0C0A03FDFAFBFAF6F2F1F5FAFBFB3C
:10529C00FD03090C0A090A0C0A04FDFAFBFAF6F2E2
:1052AC00F1F5F9FBFBFD02090C0A090A0C0A04FED4
:1052BC00FBFBFAF6F2F1F5F9FBFBFD02080B0A0910
:1052CC000A0C0A05FEFBFBFAF7F2F1F5F9FBFBFC05
:1052DC0002080B0B090A0C0B05FEFBFBFAF7F2F1AB
:1052EC00F4F9FBFBFC01080B0B090A0C0B05FFFB8B
:1052FC00FBFBF7F3F1F4F9FBFBFC01070B0B090AC1
:10530C000C0B06FFFBFBFBF8F3F1F4F9FBFBFC00C9
:10531C00070B0B090A0C0B06FFFBFBFBF8F3F1F474
:10532C00F8FBFBFC00070B0B090A0C0B0700FBFB43
:10533C00FBF8F3F1F3F8FBFBFB00060B0B09090B75
:10534C000B0700FBFBFBF8F4F1F3F8FBFBFBFF0690
:10535C000B0B09090B0C0700FBFBFBF8F4F1F3F842
:10536C00FBFBFBFF060B0B09090B0C0801FCFBFB01
:10537C00F9F4F1F3F7FAFBFBFF050A0B09090B0C27
:10538C000801FCFBFBF9F4F1F3F7FAFBFBFE050A51
:10539C000B09090B0C0802FCFBFBF9F5F1F2F7FA0F
:1053AC00FBFBFE040A0B0A090B0C0902FCFBFBF9C4
:1053BC00F5F2F2F7FAFBFBFE040A0B0A090B0C09D7
:1053CC0002FDFBFBFAF5F2F2F6FAFBFBFE04090B0D
:1053DC000A090A0C0903FDFBFBFAF6F2F2F6FAFBDA
:1053EC00FBFD03090B0A090A0C0903FDFBFBFAF68A
:1053FC00F2F2F6FAFBFBFD03090B0A090A0C0A048C
:10540C00FDFBFBFAF6F2F2F6FAFBFBFD02080B0AC7
:10541C00090A0C0A04FEFBFBFAF7F2F2F5F9FBFBA6
:10542C00FD02080B0A090A0C0A04FEFBFBFAF7F34F
:10543C00F2F5F9FBFBFC02080B0A090A0C0A05FE43
:10544C00FBFBFBF7F3F2F5F9FBFBFC01070B0A097D
:10545C000A0B0A05FFFBFBFBF7F3F2F5F9FBFBFC70
:10546C0001070B0A090A0B0B06FFFBFBFBF8F3F217
:10547C00F4F9FBFBFC00070A0A09090B0B06FFFBFE
:10548C00FBFBF8F4F2F4F8FBFBFC00060A0A090932
:10549C000B0B0600FCFBFBF8F4F2F4F8FBFBFC0036
:1054AC00060A0A09090B0B0700FCFBFBF8F4F2F4E3
:1054BC00F8FBFBFBFF060A0B09090B0B0701FCFBB6
:1054CC00FBF9F4F2F3F8FAFBFBFF050A0B09090BE5
:1054DC000B0701FCFBFBF9F5F2F3F7FAFBFBFF05FD
:1054EC000A0B09090B0B0801FCFBFBF9F5F2F3F7AE
:1054FC00FAFBFBFE04090B09090B0B0802FDFBFB75
:10550C00F9F5F2F3F7FAFBFBFE04090B09090A0B98
:10551C000802FDFBFBFAF6F2F3F7FAFBFBFE0309BC
:10552C000B09090A0B0903FDFBFBFAF6F3F3F6FA78
:10553C00FBFBFE03080A0A090A0B0903FDFBFBFA35
:10554C00F6F3F3F6FAFBFBFD03080A0A090A0B094A
:10555C0003FEFBFBFAF7F3F3F6FAFBFBFD02080A7A
:10556C000A090A0B0904FEFBFBFAF7F3F3F6F9FB45
:10557C00FBFD02080A0A090A0B0A04FEFBFBFAF7F8
:10558C00F3F2F5F9FBFBFD01070A0A090A0B0A0500
:10559C00FFFBFBFAF7F4F2F5F9FBFBFC01070A0A37
:1055AC0009090B0A05FFFCFBFBF8F4F2F5F9FBFB10
:1055BC00FC01060A0A09090B0A05FFFCFBFBF8F4BF
:1055CC00F2F5F9FBFBFC00060A0A09090B0A0600B6
:1055DC00FCFBFBF8F4F2F5F8FBFBFC00060A0A09ED
:1055EC00090B0A0600FCFBFBF8F4F2F4F8FBFBFCDD
:1055FC0000050A0A09090B0A0700FCFBFBF9F5F286
:10560C00F4F8FBFBFCFF05090A09090A0B0701FC6E
:10561C00FBFBF9F5F3F4F8FAFBFCFF05090A0909A1
:10562C000A0B0701FDFBFBF9F5F3F4F7FAFBFBFFA3
:10563C0004090A09090A0B0802FDFBFBF9F6F3F44D
:10564C00F7FAFBFBFE04090A09090A0B0802FDFB29
:10565C00FBF9F6F3F3F7FAFBFBFE04080A09090A57
:10566C000B0802FDFBFBFAF6F3F3F7FAFBFBFE0368
:10567C00080A09090A0B0803FEFBFBFAF6F3F3F61A
:10568C00FAFBFBFE03080A09090A0B0903FEFBFBE4
:10569C00FAF7F3F3F6FAFBFBFD02080A0909090B0A
:1056AC000904FEFBFBFAF7F4F3F6FAFBFBFD020729
:1056BC000A0A09090A0904FEFBFBFAF7F4F3F6F9E6
:1056CC00FBFBFD02070A0A09090A0904FFFCFBFAA5
:1056DC00F7F4F3F6F9FBFBFD01070A0A09090A09BD
:1056EC0005FFFCFBFAF8F4F3F5F9FBFBFD01060AE8
:1056FC000A09090A0905FFFCFBFBF8F4F3F5F9FBB1
:10570C00FBFC0106090A09090A0A0500FCFBFBF867
:10571C00F5F3F5F9FBFBFC0006090A09090A0A0670
:10572C0000FCFBFBF8F5F3F5F8FBFBFC0005090AA4
:10573C0009090A0A0600FCFBFBF9F5F3F5F8FBFB7B
:10574C00FC0005090A09090A0A0601FDFBFBF9F52B
:10575C00F3F4F8FAFBFCFF05090A09090A0A070128
:10576C00FDFBFBF9F5F3F4F8FAFBFCFF04090A095D
:10577C00090A0A0701FDFBFBF9F6F3F4F7FAFBFC47
:10578C00FF04080A09090A0A0702FDFBFBF9F6F3F4
:10579C00F4F7FAFBFCFE04080A09090A0A0702FDE1
:1057AC00FBFBFAF6F3F4F7FAFBFCFE03080A090913
:1057BC000A0A0802FEFBFBFAF6F4F4F7FAFBFBFE0E
:1057CC0003080A0909090A0803FEFCFBFAF7F4F4BA
:1057DC00F7FAFBFBFE03070A0909090A0803FEFC9A
:1057EC00FBFAF7F4F4F6FAFBFBFE02070A090809C8
:1057FC000A0804FEFCFBFAF7F4F4F6F9FBFBFD02D5
:10580C0007090908090A0904FFFCFBFAF7F4F4F686
:10581C00F9FBFBFD0107090908090A0904FFFCFB58
:10582C00FBF8F4F4F6F9FBFBFD0106090908090A7B
:10583C000905FFFCFBFBF8F5F4F6F9FBFBFD010693
:10584C00090908090A090500FCFBFBF8F5F4F5F950
:10585C00FBFBFD0006090908090A090500FCFBFB16
:10586C00F8F5F4F5F9FBFBFC0005090908090A0930
:10587C000600FDFBFBF9F5F4F5F8FBFBFC00050954
:10588C000908090A090601FDFCFBF9F5F4F5F8FB1A
:10589C00FBFC0005090909090A0A0601FDFCFBF9D4
:1058AC00F6F4F5F8FAFBFCFF04080909080A0A06E5
:1058BC0001FDFCFBF9F6F4F5F8FAFBFCFF04080912
:1058CC0009080A0A0702FDFCFBF9F6F4F5F8FAFBE5
:1058DC00FCFF0408090908090A0702FDFCFBFAF69B
:1058EC00F4F4F7FAFBFCFE0308090908090A07029D
:1058FC00FEFCFBFAF7F4F4F7FAFBFCFE03080909CB
:10590C0008090A0803FEFCFBFAF7F4F4F7FAFBFCAF
:10591C00FE0307090908090A0803FEFCFBFAF7F461
:10592C00F4F7FAFBFCFE0207090908090A0803FE52
:10593C00FCFBFAF7F4F4F7FAFBFBFD020709090884
:10594C00090A0804FFFCFBFAF8F5F4F6FAFBFBFD78
:10595C000206090908090A0804FFFCFBFBF8F5F428
:10596C00F6F9FBFBFD0106090908090A0904FFFC0D
:10597C00FBFBF8F5F4F6F9FBFBFD01060909080938
:10598C000A090500FCFCFBF8F5F4F6F9FBFBFD013C
:10599C0006090908080A090500FCFCFBF9F5F4F6F0
:1059AC00F9FBFBFD00050909080809090500FDFCC8
:1059BC00FBF9F6F4F5F9FBFBFC00050809080809EE
:1059CC00090600FDFCFBF9F6F4F5F9FBFBFC000500
:1059DC000809080809090601FDFCFBF9F6F4F5F8BD
:1059EC00FBFBFCFF040809080809090601FDFCFB88
:1059FC00FAF6F4F5F8FBFBFCFF04080908080909A2
:105A0C000701FDFCFBFAF6F4F5F8FBFBFCFF0408C0
:105A1C0009080809090702FDFCFBFAF7F4F5F8FA86
:105A2C00FBFCFE0308090808090A0702FEFCFBFA46
:105A3C00F7F4F4F7FAFBFCFE0307090808090A0758
:105A4C0003FEFCFBFAF7F4F4F7FAFBFCFE02070981
:105A5C000908090A0803FEFCFBFAF7F4F4F7FAFB51
:105A6C00FCFE0207090908090A0803FEFCFBFBF807
:105A7C00F5F4F7FAFBFCFD0207090908080A08040B
:105A8C00FFFCFCFBF8F5F4F7FAFBFCFD0106090939
:105A9C000808090804FFFCFCFBF8F5F4F6FAFBFC1B
:105AAC00FD010609090808090904FFFCFCFBF9F5CE
:105ABC00F4F6FAFBFCFD010609090808090905FFC3
:105ACC00FCFCFBF9F5F4F6F9FBFCFD0005090908F3
